:1000000000100020C11A0000F71A0000F91A0000C1
:10001000FB1A0000FD1A0000FF1A0000F51A00008C
:10002000F51A0000F51A0000F51A0000011B000087
:10003000031B0000F51A0000051B00004903000027
:10004000091B0000711A00000D1B00000F1B0000AF
:10005000111B0000131B0000151B0000171B0000E4
:10006000191B0000991A00001D1B0000190D00004B
:10007000910D0000231B0000251B0000271B000022
:10008000291B00002B1B00002D1B00002F1B000054
:10009000311B0000331B0000351B00000000000076
:1000A0000000000000000000000000000000000050
:1000B0000000000000000000000000000000000040
:1000C0000000000000000000000000000000000030
:1000D0000000000000000000000000000000000020
:1000E0000000000000000000000000000000000010
:1000F0000000000000000000000000000000000000
:1001000010B5054C237833B9044810B10448AFF357
:1001100000800121217010BD74000020000000004B
:10012000C01E000008B5064B1BB106480649AFF3D8
:1001300000800648016811B1054A02B1904708BD28
:1001400000000000C01E00007800002074000020A5
:1001500000000000154B002B08BF134B9D46A3F574
:10016000803A00218B460F461348144A121A01F0B8
:1001700015FE0F4B002B00D098470E4B002B00D0E4
:1001800098470020002104460D4600200C4900221B
:10019000002301F0A7FD01F0DBFD2046294600F019
:1001A00083F901F0A9FD00BF000008000010002045
:1001B000000000000000000074000020100100207A
:1001C000251D000080B483B000AF03463960FB7189
:1001D00097F90730002B10DA4FF46D43CEF200038D
:1001E000FA7902F00F02A2F104013A68D2B24FEAA2
:1001F0004212D2B25B181A760DE04FF46143CEF290
:10020000000397F907103A68D2B24FEA4212D2B20D
:100210005B1883F8002307F10C07BD4680BC7047CC
:1002200080B582B000AF78607B6803F1FF326FF079
:100230007F439A4202D94FF001031DE04EF21003B2
:10024000CEF200037A6802F1FF325A604FF0FF30BD
:100250004FF00701FFF7B6FF4EF21003CEF2000396
:100260004FF000029A604EF21003CEF200034FF0FE
:1002700007021A604FF00003184607F10807BD4651
:1002800080BD00BF80B400AFBD4680BC704700BFDA
:1002900080B582B000AF03463960FB71FB79052B56
:1002A00002D83B680F2B07D941F6C850C0F20000B6
:1002B00040F2DF1100F0FAFD4FF4C042C4F2000238
:1002C000F9793B684FF0010000FA03F318460B463A
:1002D0004FEAC3035B184FEA8303D31803F11003FB
:1002E000586007F10807BD4680BD00BF80B582B0E9
:1002F00000AF03463960FB71FB79052B02D83B68E0
:100300000F2B07D941F6C850C0F2000040F20B2174
:1003100000F0CCFD4FF4C042C4F20002F9793B6812
:100320004FF0010000FA03F318460B464FEAC303EF
:100330005B184FEA8303D31803F11003186007F129
:100340000807BD4680BD00BF80B400AF40F2DC03AB
:10035000C2F200031B6803F1010240F2DC03C2F2A7
:1003600000031A60BD4680BC704700BF80B485B0F2
:1003700000AF786040F2DC03C2F200031B68FB6050
:1003800000BF40F2DC03C2F200031A68FB68D21A15
:100390007B689A42F5D307F11407BD4680BC7047CD
:1003A00080B582B000AF0346FB71FB79042B77D197
:1003B0004FF000004FF000014FF000024FF001033A
:1003C00000F034FD4FF02A004FF000014FF0000222
:1003D0004FF0000300F02AFD4FF000004FF0000145
:1003E0004FF000024FF0010300F020FD4FF02B0012
:1003F0004FF000014FF000024FF0000300F016FD37
:100400004FF000004FF000014FF000024FF00103E9
:1004100000F00CFD4FF02C004FF000014FF00002F7
:100420004FF0000300F002FD4FF000004FF000011C
:100430004FF000024FF0010300F0F8FC4FF02D00E8
:100440004FF000014FF000024FF0000300F0EEFC0F
:100450004FF000004FF000014FF000024FF0010399
:1004600000F0E4FC4FF02E004FF000014FF00002CE
:100470004FF0000300F0DAFC4FF000004FF00001F5
:100480004FF000024FF0010300F0D0FC4FF02F00BE
:100490004FF000014FF000024FF0000300F0C6FCE7
:1004A00007F10807BD4680BD80B582B002AFFFF7F7
:1004B000E9FE4FF4C440C0F202004FF0010100F029
:1004C00029FE4FF003004FF007014FF005024FF0F7
:1004D000010301F0D9F84FF003004FF00701FFF7D7
:1004E000D7FE4FF001004FF00C014FF005024FF026
:1004F000000301F0C9F84FF001004FF00C01FFF7C5
:10050000C7FE4FF44850C0F202004FF0010100F066
:1005100001FE4FF001004FF001014FF0010200F029
:100520004DFA4FF02000C0F2040000F05FFE0246DA
:1005300044F6D353C1F26203A3FB02134FEA9313B1
:100540001846FFF76DFE0346002B00D0FEE74FF480
:10055000FA70FFF70BFF4FF0010300934FF002001A
:100560004FF004014FF001024FF0000301F00AF8D0
:1005700001F01AFA4FF002004FF004014FF00102AF
:100580004FF0000301F080F84FF002004FF005013A
:100590004FF000024FF0000301F076F84FF0020038
:1005A0004FF00C014FF000024FF0000301F06CF827
:1005B0004FF002004FF00D014FF000024FF000032A
:1005C00001F062F84FF001004FF00B014FF0000214
:1005D0004FF0000301F058F84FF002004FF0060111
:1005E0004FF000024FF0000301F04EF84FF003000F
:1005F0004FF005014FF005024FF0000301F044F801
:100600004FF003004FF00501FFF770FE4FF0C800F8
:10061000FFF7ACFE4FF003004FF00701FFF766FE57
:100620004FF003004FF004014FF000024FF00103C0
:1006300001F02AF84FF003004FF006014FF00002DE
:100640004FF0010301F020F84FF0C800FFF78EFED5
:100650004FF000004FF000014FF000024FF0080390
:1006600000F0E4FB4FF4FA70FFF780FE4FF001005A
:100670004FF000014FF017024FF0A20300F0D6FB3D
:100680004FF002004FF000014FF01F024FF03E0309
:1006900000F0CCFB4FF003004FF000014FF01702C9
:1006A0004FF0700300F0C2FB4FF004004FF0000168
:1006B0004FF01F024FF03F0300F0B8FB4FF0050072
:1006C0004FF000014FF000024FF0320300F0AEFB9C
:1006D0004FF006004FF000014FF007024FF0CE033D
:1006E00000F0A4FB4FF007004FF000014FF00802AC
:1006F0004FF0020300F09AFB4FF008004FF00001AA
:100700004FF00F024FF09E0300F090FB4FF00900F6
:100710004FF000014FF007024FF0D00300F086FBCE
:100720004FF00A004FF000014FF00F024FF09F030F
:1007300000F07CFB4FF00B004FF000014FF00F0278
:100740004FF0D20300F072FB4FF00C004FF00001AD
:100750004FF017024FF06E0300F068FB4FF00D00F2
:100760004FF000014FF000024FF0040300F05EFB79
:100770004FF00E004FF000014FF007024FF0CF0393
:1007800000F054FB4FF00F004FF000014FF0070254
:100790004FF0D40300F04AFB4FF010004FF000017F
:1007A0004FF00F024FF09F0300F040FB4FF011009D
:1007B0004FF000014FF00F024FF0A40300F036FBA2
:1007C0004FF012004FF000014FF017024FF06F038F
:1007D00000F02CFB4FF013004FF000014FF0170218
:1007E0004FF0740300F022FB4FF014004FF00001B3
:1007F0004FF01F024FF03F0300F018FB4FF01500C1
:100800004FF000014FF000024FF0000300F00EFB2C
:100810004FF016004FF000014FF000024FF00303BD
:1008200000F004FB4FF017004FF000014FF00702FB
:100830004FF0D00300F0FAFA4FF018004FF000012B
:100840004FF007024FF0D30300F0F0FA4FF0190019
:100850004FF000014FF00F024FF0A00300F0E6FA56
:100860004FF01A004FF000014FF00F024FF0A303BA
:1008700000F0DCFA4FF01B004FF000014FF01702C0
:100880004FF0700300F0D2FA4FF01C004FF000015F
:100890004FF017024FF0730300F0C8FA4FF01D003D
:1008A0004FF000014FF01F024FF03F0300F0BEFA7F
:1008B0004FF01E004FF000014FF007024FF0080309
:1008C00000F0B4FA4FF01F004FF000014FF00002AB
:1008D0004FF0000300F0AAFA4FF020004FF00001A3
:1008E0004FF000024FF0000300F0A0FA4FF021009B
:1008F0004FF000014FF000024FF0FD0300F096FAB8
:100900004FF022004FF001014FF020024FF0200382
:1009100000F08CFA4FF023004FF002014FF001027B
:100920004FF0000300F082FA4FF024004FF0000176
:100930004FF000024FF0000300F078FA4FF025006E
:100940004FF000014FF000024FF0000300F06EFA8C
:100950004FF026004FF000014FF000024FF000036F
:1009600000F064FA4FF027004FF000014FF0000252
:100970004FF0000300F05AFA4FF028004FF000014A
:100980004FF000024FF0000300F050FA4FF0290042
:100990004FF000014FF000024FF0000300F046FA64
:1009A0004FF06400FFF7E2FC4FF0040040F2A13189
:1009B000C0F2000101F00CF8FEE700BF80B584B082
:1009C00000AF13460246FA710A46BA717B71FB7991
:1009D000002B02D0012B06D00BE04FF44043C4F2B1
:1009E0000003FB6006E04FF44443C4F20003FB60E5
:1009F00000E08DE1FB684FF4C0625A61FA6840F292
:100A00000143C1F200031360FB684FF44062DA60F7
:100A1000FB684FF00002DA64FB684FF00D025A6089
:100A2000BB794FEA032343F00F02FB685A654FF08E
:100A30000103FB724FF00403BB724FF001037B72A2
:100A40004FF001033B727B79002B16D0FB684FF00F
:100A50001502DA60FB681B6843F48032FB681A6099
:100A60004FF00403FB724FF00103BB724FF004031D
:100A70007B724FF004033B7203E0FB684FF005020A
:100A8000DA60FB6841F6F9729A64FB79012B00F099
:100A90008A80022B00F0E180002B40F03881BB7986
:100AA000012B2CD0022B53D0002B7AD1FB7A4FF0A4
:100AB00004004FF00A011A464FF0000300F0E4FD75
:100AC000BB7A4FF004004FF00B011A464FF00003C1
:100AD00000F0DAFD7B7A4FF004004FF00D011A466A
:100AE0004FF0000300F0D0FD3B7A4FF004004FF0D0
:100AF0000C011A464FF0000300F0C6FD52E0FB7AED
:100B00004FF004004FF007011A464FF0000300F0C9
:100B1000BBFDBB7A4FF004004FF006011A464FF0C0
:100B2000000300F0B1FD7B7A4FF004004FF00401A8
:100B30001A464FF0000300F0A7FD3B7A4FF0040087
:100B40004FF005011A464FF0000300F09DFD29E02B
:100B5000FB7A4FF002004FF00B011A464FF00003F2
:100B600000F092FDBB7A4FF002004FF00A011A46E6
:100B70004FF0000300F088FD7B7A4FF002004FF049
:100B800008011A464FF0000300F07EFD3B7A4FF05B
:100B900002004FF009011A464FF0000300F074FD07
:100BA00000E000BFB4E0BB79002B02D0012B29D0BC
:100BB00051E0FB7A4FF002004FF000011A464FF06F
:100BC000000300F061FDBB7A4FF002004FF001011D
:100BD0001A464FF0000300F057FD7B7A4FF00100FA
:100BE0004FF008011A464FF0000300F04DFD3B7A2C
:100BF0004FF001004FF007011A464FF0000300F0DC
:100C000043FD29E0FB7A4FF003004FF000011A4644
:100C10004FF0000300F038FDBB7A4FF003004FF0B7
:100C200001011A464FF0000300F02EFD7B7A4FF0D1
:100C300003004FF003011A464FF0000300F024FDBB
:100C40003B7A4FF003004FF002011A464FF00003C9
:100C500000F01AFD00E000BF5AE0BB79002B02D083
:100C6000012B29D051E0FB7A4FF002004FF0020136
:100C70001A464FF0000300F007FDBB7A4FF0020068
:100C80004FF003011A464FF0000300F0FDFC7B7AA1
:100C90004FF002004FF005011A464FF0000300F03C
:100CA000F3FC3B7A4FF002004FF004011A464FF07C
:100CB000000300F0E9FC29E0FB7A4FF001004FF05F
:100CC00003011A464FF0000300F0DEFCBB7A4FF040
:100CD00001004FF004011A464FF0000300F0D4FC6D
:100CE0007B7A4FF001004FF006011A464FF00003E7
:100CF00000F0CAFC3B7A4FF001004FF005011A46A4
:100D00004FF0000300F0C0FC00E000BF00E000BFB7
:100D100007F11007BD4680BD80B483B000AF4FF42B
:100D20004443C4F200037B607B681B6903F08003CB
:100D3000002B27D07B68DB69FB7040F2E803C2F22E
:100D400000031A6840F2F403C2F200031B689A42DF
:100D500018DA40F2F003C2F200031A6840F2E80326
:100D6000C2F200031B68D318FA781A7040F2E80345
:100D7000C2F200031B6803F1010240F2E803C2F271
:100D800000031A6007F10C07BD4680BC704700BF26
:100D900080B483B000AF4FF44443C4F200037B60DF
:100DA0007B681B6903F04003002B39D040F2041329
:100DB000C2F200031B68002B2ED040F20413C2F2D3
:100DC00000031A6840F20813C2F200031B68D3182C
:100DD0001B781A467B685A6340F20813C2F200037C
:100DE0001B6803F1010240F20813C2F200031A600B
:100DF00040F20813C2F200031A6840F2FC03C2F288
:100E000000031B689A420BD140F20413C2F20003A4
:100E10004FF000021A6003E07B684FF000025A6353
:100E200007F10C07BD4680BC704700BF80B489B095
:100E300000AFF871B9717A713B714FF44443C4F259
:100E40000003FB6107F10703BB6107F106037B6148
:100E500007F105033B6107F10403FB6000BFFB6979
:100E60001B6903F04003002BF9D0BB691B781A46BD
:100E7000FB695A637B691B781A46FB695A633B69B5
:100E80001B781A46FB695A63FB681B781A46FB6994
:100E90005A6300BFFB691B6903F02003002BF9D0E4
:100EA00007F12407BD4680BC704700BF80B483B003
:100EB00000AF78603960FEE780B487B000AFF860BB
:100EC000B9607A60FB6803F104734FEAC302BB6840
:100ED000D3184FEA83037B617B697A681A6007F154
:100EE0001C07BD4680BC704790B587B000AF7860E6
:100EF0007B68002B03D07B68B3F5004F07D941F620
:100F00001860C0F200004FF08801FFF7CFFF7B6848
:100F10003B613B69B3FA83F4FC60FB68DBB2C3F16D
:100F20001F037B617B69184607F11C07BD4690BD16
:100F300080B483B000AF4FF40043C4F20C035B698C
:100F400003F4E063B3F5007F17D0B3F5007F05D855
:100F5000002B1ED0B3F5807F15D02CE0B3F5C06F09
:100F600023D0B3F5E06F1AD0B3F5407F23D144F21C
:100F70004023C0F20F037B6021E04CF6C073C0F247
:100F80006A037B601BE04DF6C003C0F2A7037B60E1
:100F900015E049F68073C0F2D5037B600FE046F69A
:100FA0004073C0F240137B6009E04FF47C53C0F201
:100FB000AB137B6003E04FF000037B6000BF7B68F6
:100FC000184607F10C07BD4680BC704780B582B05B
:100FD00000AF4FF00400C0F2180000F005FA03461D
:100FE000FB70FB78072B05D0082B07D100F0D0FD54
:100FF00078600FE0FFF79CFF78600BE041F6186027
:10100000C0F2000040F26111FFF750FF4FF0000303
:101010007B6000BF7B68184607F10807BD4680BDAE
:1010200080B584B000AF78607B68002B0AD07B6805
:10103000012B07D041F61860C0F200004FF4BC71DC
:10104000FFF734FF4FF40043C4F20C039A6A7B6845
:101050004FEA430322FA03F303F00303032B30D8D0
:1010600001A252F823F000BF971000007910000091
:10107000811000008910000000F018FEF86024E0E4
:1010800000F024FEF86020E000F064FD03464FEA23
:101090005303FB6019E04FF40043C4F20C039A6A57
:1010A0007B6803F104034FEA830322FA03F3002B66
:1010B00003D000F003FEF86007E04FF00003FB6090
:1010C00003E04FF00003FB6000BFFB68184607F128
:1010D0001007BD4680BD00BF80B483B000AF78600C
:1010E0004FF40043C4F20C035B6D03F00103002BCB
:1010F0000AD100BF4FF40043C4F20C031A6D7B68A1
:101100001340002BF6D100E000BF07F10C07BD46ED
:1011100080BC704780B586B000AF78600B46FB702E
:101120004FF000033B617B684FEA132303F00F038A
:1011300003F1FF33052B39D801A252F823F000BF89
:101140005911000065110000711100007D110000AF
:101150008F110000A111000048F20803C4F20C0333
:101160007B612CE048F24403C4F20C037B6126E06F
:1011700048F24003C4F20C037B6120E048F25803BC
:10118000C4F20C037B614FF001033B6117E048F2AE
:101190006003C4F20C037B614FF010033B610EE06F
:1011A00048F27803C4F20C037B6108E041F6186052
:1011B000C0F2000040F20E41FFF778FE11E07B68BC
:1011C0004FEA133303F01F03FB603B69002B02D08F
:1011D0003869FFF781FFFB787869F9681A46FFF7ED
:1011E0006BFE07F11807BD4680BD00BF90B585B006
:1011F00000AF78607B6803F47813B3F5402F77D0A5
:10120000B3F5402F15D8B3F5802F41D0B3F5802F1B
:1012100005D8002B29D0B3F5003F2AD0D1E0B3F593
:10122000002F3FD0B3F5202F4FD0B3F5C02F33D0D0
:10123000C7E0B3F5901F00F0A580B3F5901F07D865
:10124000B3F5602F6DD0B3F5801F00F08A80B8E051
:10125000B3F5C01F00F0AD80B3F5D01F00F0AD8036
:10126000B3F5A01F00F09480ABE000F091FCF860B3
:10127000B3E000F08DFCF8604FF40043C4F20C03BF
:101280009B6803F00F03FA6822FA03F3FB60A4E003
:1012900000F060FCF860A0E04FF00000FFF7C0FE37
:1012A000F8609AE04FF00000FFF7BAFEF8604FF4E4
:1012B0000043C4F20C039B6E03F0F0034FEA1313D8
:1012C000FA6822FA03F3FB6087E04FF00000FFF7B3
:1012D000A7FEF8604FF40043C4F20C039B6E03F4C6
:1012E00070634FEA1323FA6822FA03F3FB6074E099
:1012F0004FF00000FFF794FEF8604FF40043C4F293
:101300000C039B6E03F440534FEA13344FF010006C
:10131000FFF7EAFD0346E318FA6822FA03F3FB60DD
:101320005BE04FF00000FFF77BFEF8604FF40043F6
:10133000C4F20C039B6E03F440534FEA1333FA6874
:1013400022FA03F3FB604FF40043C4F20C03DB6F9B
:1013500003F0070303F10103FA68B2FBF3F3FB6048
:101360003BE04FF00000FFF75BFEF8604FF40043F6
:10137000C4F20C039B6E03F00303FA6822FA03F332
:10138000FB602AE04FF00100FFF74AFEF86024E01E
:101390004FF00100FFF744FEF8604FF40043C4F241
:1013A0000C031B6F03F00303FA6822FA03F3FB60DC
:1013B00013E0FFF70BFEF8600FE0FFF7B9FDF860F0
:1013C0000BE041F61860C0F200004FF49761FFF7A0
:1013D0006DFD4FF00003FB6000BFFB68184607F18E
:1013E0001407BD4690BD00BF80B584B000AF7860E3
:1013F0004FF00103FB737B6803F00F03BB60BB6816
:1014000003F1FF33032B00F2938001A252F823F083
:101410002114000065140000B5140000051500003B
:101420004FF40043C4F20C03DB6A03F47053B3F5CA
:10143000805F0AD0B3F5005F03D0B3F5006F08D02A
:101440000BE04FF00203FB730BE04FF00303FB7361
:1014500007E04FF00403FB7303E04FF00503FB7359
:1014600000BF71E04FF40043C4F20C039B6A03F029
:101470000303022B07D0032B09D0012B0BD14FF014
:101480000303FB7315E04FF00203FB7311E04FF011
:101490000603FB730DE04FF40043C4F20C039B6A98
:1014A00003F48033002B03D04FF00903FB7300E0FB
:1014B00000BF49E04FF40043C4F20C039B6A03F001
:1014C0000C03082B07D00C2B09D0042B0BD14FF0A9
:1014D0000303FB7315E04FF00203FB7311E04FF0C1
:1014E0000603FB730DE04FF40043C4F20C039B6A48
:1014F00003F48013002B03D04FF00903FB7300E0CB
:1015000000BF21E04FF40043C4F20C031B6803F05A
:101510008053002B03D0B3F1805F04D007E04FF07D
:101520000703FB7303E04FF00803FB7300BF0BE0FE
:1015300041F61860C0F2000040F25651FFF7B6FCC9
:101540004FF00003FB7300BFFB7B184607F1100749
:10155000BD4680BD80B487B000AFF860B9607A60E6
:10156000FB6803F104734FEAC302BB68D3184FEA68
:1015700083037B617B697A681A6007F11C07BD46AB
:1015800080BC704780B584B000AF39600146F97106
:10159000BA717B71FB79052B02D83B680F2B07D9F9
:1015A00041F66860C0F200004FF09701FFF77EFC43
:1015B0003B68072B1DD84FF4C043C4F200034FF41F
:1015C000C042C4F20002D2F800113A684FEA820227
:1015D0004FF00F0000FA02F26FEA02021140F879B0
:1015E0003A684FEA820200FA02F20A43C3F8002185
:1015F00020E03B68A3F10803FB604FF4C043C4F252
:1016000000034FF4C042C4F20002D2F80411FA6899
:101610004FEA82024FF00F0000FA02F26FEA020274
:101620001140F879FA684FEA820200FA02F20A439E
:10163000C3F80421BB7946F20810C4F200003968EF
:101640001A46FFF787FF7B7946F20C10C4F20000C0
:1016500039681A46FFF77EFF4FF4C043C4F2000317
:101660003A684FF0010101FA02F2C3F81C213B7EF7
:1016700046F21010C4F2000039681A46FFF76AFFFC
:1016800007F11007BD4680BD90B585B000AFB960C9
:101690007B600346FB731346BB73FB7B052B02D8B1
:1016A000BB680F2B07D941F66860C0F200004FF00D
:1016B000CC01FFF7FBFBBB7B002B2DD07B68002B05
:1016C00015D04FF4C042C4F20002F97BBB684FF062
:1016D000010000FA03F318460B464FEAC3035B18F8
:1016E0004FEA8303D31803F11003186014E04FF49A
:1016F000C042C4F20002F97BBB684FF0010000FA5F
:1017000003F318460B464FEAC3035B184FEA830303
:10171000D31803F110035860BB68072B2BD84FF484
:10172000C042C4F20002F87B4FF4C041C4F2000191
:10173000FC7B23464FEAC3031B194FEA8303CB18F4
:101740005968BB684FEA83034FF00F0404FA03F3B0
:101750006FEA03031940BC7BBB684FEA830304FABA
:1017600003F3194303464FEAC3031B184FEA8303ED
:10177000D318596036E04FF4C042C4F20002F87B3F
:101780004FF4C041C4F20001FC7B23464FEAC3037F
:101790001B194FEA8303CB1803F108031968BB68D0
:1017A00003F18043A3F108034FEA83034FF00F04D2
:1017B00004FA03F36FEA03031940BC7BBB6803F12F
:1017C0008043A3F108034FEA830304FA03F31943A8
:1017D00003464FEAC3031B184FEA8303D31803F1F0
:1017E00008031960BB7B002B2DD17B68002B15D023
:1017F0004FF4C042C4F20002F97BBB684FF0010015
:1018000000FA03F318460B464FEAC3035B184FEA8E
:101810008303D31803F11003186014E04FF4C0429F
:10182000C4F20002F97BBB684FF0010000FA03F339
:1018300018460B464FEAC3035B184FEA8303D318DD
:1018400003F11003586007F11407BD4690BD00BFB7
:1018500080B483B000AF0346FB714FF46143CEF216
:10186000000397F907204FEA5212F97901F01F019E
:101870004FF0010000FA01F143F8221007F10C07C4
:10188000BD4680BC704700BF80B483B000AF034644
:10189000FB714FF46143CEF2000397F907204FEA42
:1018A0005212F97901F01F014FF0010000FA01F125
:1018B00002F1600243F8221007F10C07BD4680BC1C
:1018C000704700BF80B483B000AF78604FF4C0436E
:1018D000C4F200037A68C3F81C2107F10C07BD4667
:1018E00080BC704780B483B000AF4FF4C043C4F2F3
:1018F0000003D3F810317B604FF4C043C4F20003FF
:10190000D3F814217B681340184607F10C07BD4635
:1019100080BC704780B400AF72B640F29003C2F250
:1019200000031B68B3F1FF3F0BD040F29003C2F2FB
:1019300000031B6803F1010240F29003C2F20003AE
:101940001A6040F29003C2F200031B681846BD46BD
:1019500080BC704780B483B000AF40F29003C2F205
:1019600000031B68002B17D040F29003C2F2000363
:101970001B6803F1FF3240F29003C2F200031A60C9
:1019800040F29003C2F200031B687B607B68002B6F
:1019900000D162B67B6801E04FF00003184607F102
:1019A0000C07BD4680BC704780B500AF4FF0090002
:1019B000FFF76AFF4FF00900FFF74AFF4FF0010001
:1019C000FFF762FF4FF00100FFF742FF80BD00BF4D
:1019D00080B582B000AF03463960FB71FFF79AFF14
:1019E000FA7940F29403C2F20003396843F82210F6
:1019F000FFF7B0FF07F10807BD4680BD90B589B07D
:101A000000AF78602CE07B68BB61BB6993FAA3F4FC
:101A10007C617B693B613B69B3FA83F4FC60FB68E2
:101A2000DBB2FB61FB694FF0010202FA03F36FEADC
:101A300003037A6813407B6040F29403C2F2000310
:101A4000FA6953F82230002B0AD040F29403C2F214
:101A50000003FA6953F82230FA69D2B21046984767
:101A60007B68002BCFD107F12407BD4690BD00BF96
:101A700080B582B000AFFFF735FF024645F25553FF
:101A800013407B607868FFF71DFF7868FFF7B6FFAB
:101A900007F10807BD4680BD80B582B000AFFFF7F3
:101AA00021FF02464AF6AA2313407B607868FFF7BD
:101AB00009FF7868FFF7A2FF07F10807BD4680BD60
:101AC000074880470749084A084B9B1A40F305809E
:101AD000043BC858D0503FF7FBAF05480047000013
:101AE000A11C0000CC1E000000000020740000209B
:101AF00055010000FEE7FEE7FEE7FEE7FEE7FEE732
:101B0000FEE7FEE7FEE7FEE7FEE7FEE7FEE7FEE7AD
:101B1000FEE7FEE7FEE7FEE7FEE7FEE7FEE7FEE79D
:101B2000FEE7FEE7FEE7FEE7FEE7FEE7FEE7FEE78D
:101B3000FEE7FEE7FEE700BF80B400AF48F2B01357
:101B4000C0F6E073DB6C4FEA1363DBB21846BD46A8
:101B500080BC704780B582B000AF00F019F87860A3
:101B60004FF40043C4F20C035B6803F00F037A6880
:101B700022FA03F37B6040F20C13C2F200037A688E
:101B80001A607B68184607F10807BD4680BD00BF94
:101B900080B582B000AF4FF40043C4F20C03DB6A9F
:101BA00003F47053B3F5805F0DD0B3F5005F03D03D
:101BB000B3F5006F0BD011E040F20403C2F2000352
:101BC0001B687B6066E04FF400437B6062E040F29C
:101BD0000003C2F200031B687B605BE04FF400432C
:101BE000C4F20C03DB6803F4E063B3F5007F24D098
:101BF000B3F5007F05D8002B36D0B3F5807F22D017
:101C000043E0B3F5806F0CD0B3F5A06F03D0B3F50C
:101C1000407F0CD039E04FF47C53C0F2AB137B60B3
:101C200037E046F64073C0F240137B6031E049F67E
:101C30008073C0F2D5037B602BE04DF6C003C0F289
:101C4000A7037B6025E0FFF777FF0346122B05D93A
:101C50004BF24053C0F264037B601AE04CF6C07351
:101C6000C0F26A037B6014E0FFF766FF0346122BA5
:101C700005D94FF49F43C0F212037B6009E044F2A0
:101C80004023C0F20F037B6003E04FF000037B6052
:101C900000BF00BF7B68184607F10807BD4680BD3E
:101CA00080B400AFBD4680BC704700BF80B400AFB9
:101CB0004FF400431846BD4680BC704780B400AF67
:101CC0004FF47A731846BD4680BC704780B400AFAD
:101CD00040F20403C2F200031B681846BD4680BCF4
:101CE000704700BF10B5034C14B1AFF3008010BDB6
:101CF000204610BD0000000008B5084B04461BB18B
:101D00000021AFF3008001E000F00CF80448006807
:101D1000816A01B18847204600F048F800000000C1
:101D2000BC1E000070B5084B084C0025E01A84105A
:101D300003EB8406043D1CB172599047013CF9E75E
:101D4000BDE8704000F03AB8700000207400002038
:101D500038B50E4D0E4B0024E81A8510AC4205D064
:101D60000B4951F8242090470134F7E700F020F8A0
:101D70000849094A541AA5100024AC4205D0054B65
:101D800053F8240080470134F7E738BD6C00002089
:101D90006C0000206C0000207000002082180346B8
:101DA000934202D003F8011BFAE77047FEE700BF39
:101DB000F8B500BFF8BC08BC9E467047F8B500BF38
:101DC000F8BC08BC9E467047433A5C53696C696333
:101DD0006F6E4C6162735C53696D706C696369749A
:101DE0007953747564696F5C76325C646576656C92
:101DF0006F7065725C73646B735C65666D33325CC7
:101E000076322F656D6C69622F696E632F656D5F29
:101E10006770696F2E680000433A2F53696C6963DD
:101E20006F6E4C6162732F53696D706C6963697476
:101E30007953747564696F2F76322F646576656C9B
:101E40006F7065722F73646B732F65666D33322FFD
:101E500076322F656D6C69622F7372632F656D5FCB
:101E6000636D752E63000000433A2F53696C6963FC
:101E70006F6E4C6162732F53696D706C6963697426
:101E80007953747564696F2F76322F646576656C4B
:101E90006F7065722F73646B732F65666D33322FAD
:101EA00076322F656D6C69622F7372632F656D5F7B
:101EB0006770696F2E630000430000000800002077
:041EC000000000001E
:081EC40090E2FF7F0100000025
:101ECC000048E80100800000000000000000000055
:101EDC0000000000000000000000000000000000F6
:101EEC000000000000000000B81E00000000000010
:101EFC0000000000000000000000000000000000D6
:101F0C0000000000000000000000000000000000C5
:101F1C0000000000000000000000000000000000B5
:101F2C00000000000000000000000000250100007F
:041F3C00010100009F
:0400000300001AC11E
:00000001FF
