:1000000000100020A90B0000DF0B0000E10B000036
:10001000E30B0000E50B0000E70B0000DD0B000028
:10002000DD0B0000DD0B0000DD0B0000E90B000024
:10003000EB0B0000DD0B0000ED0B00009102000057
:10004000F10B0000F30B0000F50B0000F70B0000B4
:10005000F90B0000FB0B0000FD0B0000FF0B000084
:10006000010C0000030C0000050C0000070C000050
:10007000090C00000B0C00000D0C00000F0C000020
:10008000110C0000130C0000150C0000170C0000F0
:10009000190C00001B0C00001D0C000000000000EB
:1000A0000000000000000000000000000000000050
:1000B0000000000000000000000000000000000040
:1000C0000000000000000000000000000000000030
:1000D0000000000000000000000000000000000020
:1000E0000000000000000000000000000000000010
:1000F0000000000000000000000000000000000000
:1001000010B5054C237833B9044810B10448AFF357
:1001100000800121217010BD74000020000000004B
:100120004012000008B5064B1BB106480649AFF364
:1001300000800648016811B1054A02B1904708BD28
:100140000000000040120000780000207400002031
:1001500000000000154B002B08BF134B9D46A3F574
:10016000803A00218B460F461348144A121A00F0B9
:10017000D1FF0F4B002B00D098470E4B002B00D027
:1001800098470020002104460D4600200C4900221B
:10019000002300F063FF00F097FF2046294600F09F
:1001A000A3F800F065FF00BF000008000010002069
:1001B00000000000000000007400002098000020F3
:1001C0009D10000080B483B000AF03463960FB711E
:1001D00097F90730002B10DA4FF46D43CEF200038D
:1001E000FA7902F00F02A2F104013A68D2B24FEAA2
:1001F0004212D2B25B181A760DE04FF46143CEF290
:10020000000397F907103A68D2B24FEA4212D2B20D
:100210005B1883F8002307F10C07BD4680BC7047CC
:1002200080B582B000AF78607B6803F1FF326FF079
:100230007F439A4202D94FF001031DE04EF21003B2
:10024000CEF200037A6802F1FF325A604FF0FF30BD
:100250004FF00701FFF7B6FF4EF21003CEF2000396
:100260004FF000029A604EF21003CEF200034FF0FE
:1002700007021A604FF00003184607F10807BD4651
:1002800080BD00BF80B400AFBD4680BC704700BFDA
:1002900080B400AF40F29003C2F200031B6803F188
:1002A000010240F29003C2F200031A60BD4680BC16
:1002B000704700BF80B485B000AF786040F2900313
:1002C000C2F200031B68FB6000BF40F29003C2F261
:1002D00000031A68FB68D21A7B689A42F5D307F1CB
:1002E0001407BD4680BC704780B500AFFFF7CAFF5A
:1002F00000F09EFE4FF02000C0F2040000F0BCF9B8
:10030000024644F6D353C1F26203A3FB02134FEA41
:1003100093131846FFF784FF0346002B00D0FEE737
:1003200000F082FD4FF0000000F0BCFD4FF06400D3
:10033000FFF7C0FFF6E700BF80B483B000AF78607E
:100340003960FEE780B487B000AFF860B9607A60CA
:10035000FB6803F104734FEAC302BB68D3184FEA8A
:1003600083037B617B697A681A6007F11C07BD46CD
:1003700080BC704790B587B000AF78607B68002B79
:1003800003D07B68B3F5004F07D941F24010C0F2AB
:1003900000004FF08801FFF7CFFF7B683B613B69AE
:1003A000B3FA83F4FC60FB68DBB2C3F11F037B612B
:1003B0007B69184607F11C07BD4690BD80B483B029
:1003C00000AF4FF40043C4F20C035B6903F4E06335
:1003D000B3F5007F17D0B3F5007F05D8002B1ED0F2
:1003E000B3F5807F15D02CE0B3F5C06F23D0B3F503
:1003F000E06F1AD0B3F5407F23D144F24023C0F21E
:100400000F037B6021E04CF6C073C0F26A037B608F
:100410001BE04DF6C003C0F2A7037B6015E049F670
:100420008073C0F2D5037B600FE046F64073C0F2E4
:1004300040137B6009E04FF47C53C0F2AB137B6048
:1004400003E04FF000037B6000BF7B68184607F1B4
:100450000C07BD4680BC704780B582B000AF4FF03E
:100460000400C0F2180000F005FA0346FB70FB78A8
:10047000072B05D0082B07D100F0FEFB78600FE0BA
:10048000FFF79CFF78600BE041F24010C0F20000E3
:1004900040F26111FFF750FF4FF000037B6000BF97
:1004A0007B68184607F10807BD4680BD80B584B05B
:1004B00000AF78607B68002B0AD07B68012B07D0E7
:1004C00041F24010C0F200004FF4BC71FFF734FF5E
:1004D0004FF40043C4F20C039A6A7B684FEA43036B
:1004E00022FA03F303F00303032B30D801A252F8DE
:1004F00023F000BF23050000050500000D050000E6
:100500001505000000F046FCF86024E000F052FC05
:10051000F86020E000F092FB03464FEA5303FB60D3
:1005200019E04FF40043C4F20C039A6A7B6803F1AC
:1005300004034FEA830322FA03F3002B03D000F0F5
:1005400031FCF86007E04FF00003FB6003E04FF080
:100550000003FB6000BFFB68184607F11007BD46AB
:1005600080BD00BF80B483B000AF78604FF400431B
:10057000C4F20C035B6D03F00103002B0AD100BF32
:100580004FF40043C4F20C031A6D7B681340002B38
:10059000F6D100E000BF07F10C07BD4680BC7047F4
:1005A00080B586B000AF78600B46FB704FF000035B
:1005B0003B617B684FEA132303F00F0303F1FF3322
:1005C000052B39D801A252F823F000BFE505000041
:1005D000F1050000FD050000090600001B060000F3
:1005E0002D06000048F20803C4F20C037B612CE0E6
:1005F00048F24403C4F20C037B6126E048F2400356
:10060000C4F20C037B6120E048F25803C4F20C03EF
:100610007B614FF001033B6117E048F26003C4F2D5
:100620000C037B614FF010033B610EE048F278034E
:10063000C4F20C037B6108E041F24010C0F20000FC
:1006400040F20E41FFF778FE11E07B684FEA13336A
:1006500003F01F03FB603B69002B02D03869FFF7F2
:1006600081FFFB787869F9681A46FFF76BFE07F19E
:100670001807BD4680BD00BF90B585B000AF78605B
:100680007B6803F47813B3F5402F77D0B3F5402F90
:1006900015D8B3F5802F41D0B3F5802F05D8002BA6
:1006A00029D0B3F5003F2AD0D1E0B3F5002F3FD0D9
:1006B000B3F5202F4FD0B3F5C02F33D0C7E0B3F53B
:1006C000901F00F0A580B3F5901F07D8B3F5602FF9
:1006D0006DD0B3F5801F00F08A80B8E0B3F5C01F7D
:1006E00000F0AD80B3F5D01F00F0AD80B3F5A01FD2
:1006F00000F09480ABE000F0BFFAF860B3E000F0E7
:10070000BBFAF8604FF40043C4F20C039B6803F09B
:100710000F03FA6822FA03F3FB60A4E000F08EFAFC
:10072000F860A0E04FF00000FFF7C0FEF8609AE02C
:100730004FF00000FFF7BAFEF8604FF40043C4F238
:100740000C039B6E03F0F0034FEA1313FA6822FACE
:1007500003F3FB6087E04FF00000FFF7A7FEF860AF
:100760004FF40043C4F20C039B6E03F470634FEA32
:100770001323FA6822FA03F3FB6074E04FF00000E1
:10078000FFF794FEF8604FF40043C4F20C039B6E35
:1007900003F440534FEA13344FF01000FFF7EAFD23
:1007A0000346E318FA6822FA03F3FB605BE04FF0BC
:1007B0000000FFF77BFEF8604FF40043C4F20C0327
:1007C0009B6E03F440534FEA1333FA6822FA03F3A3
:1007D000FB604FF40043C4F20C03DB6F03F007032C
:1007E00003F10103FA68B2FBF3F3FB603BE04FF067
:1007F0000000FFF75BFEF8604FF40043C4F20C0307
:100800009B6E03F00303FA6822FA03F3FB602AE00D
:100810004FF00100FFF74AFEF86024E04FF00100BE
:10082000FFF744FEF8604FF40043C4F20C031B6F63
:1008300003F00303FA6822FA03F3FB6013E0FFF707
:100840000BFEF8600FE0FFF7B9FDF8600BE041F236
:100850004010C0F200004FF49761FFF76DFD4FF0BC
:100860000003FB6000BFFB68184607F11407BD4694
:1008700090BD00BF80B584B000AF78604FF0010339
:10088000FB737B6803F00F03BB60BB6803F1FF33AE
:10089000032B00F2938001A252F823F0AD08000070
:1008A000F108000041090000910900004FF40043E5
:1008B000C4F20C03DB6A03F47053B3F5805F0AD013
:1008C000B3F5005F03D0B3F5006F08D00BE04FF035
:1008D0000203FB730BE04FF00303FB7307E04FF0E1
:1008E0000403FB7303E04FF00503FB7300BF71E0EB
:1008F0004FF40043C4F20C039B6A03F00303022B82
:1009000007D0032B09D0012B0BD14FF00303FB734E
:1009100015E04FF00203FB7311E04FF00603FB7389
:100920000DE04FF40043C4F20C039B6A03F48033E0
:10093000002B03D04FF00903FB7300E000BF49E038
:100940004FF40043C4F20C039B6A03F00C03082B22
:1009500007D00C2B09D0042B0BD14FF00303FB73F2
:1009600015E04FF00203FB7311E04FF00603FB7339
:100970000DE04FF40043C4F20C039B6A03F48013B0
:10098000002B03D04FF00903FB7300E000BF21E010
:100990004FF40043C4F20C031B6803F08053002B98
:1009A00003D0B3F1805F04D007E04FF00703FB737F
:1009B00003E04FF00803FB7300BF0BE041F240106F
:1009C000C0F2000040F25751FFF7B6FC4FF00003B1
:1009D000FB7300BFFB7B184607F11007BD4680BDC7
:1009E00090B585B000AFB9607B600346FB731346DA
:1009F000BB73FB7B052B02D8BB680F2B07D941F2D9
:100A00009010C0F200004FF0CC01FFF795FCBB7BCB
:100A1000002B2DD07B68002B15D04FF4C042C4F2C0
:100A20000002F97BBB684FF0010000FA03F318469F
:100A30000B464FEAC3035B184FEA8303D31803F155
:100A40001003186014E04FF4C042C4F20002F97BB6
:100A5000BB684FF0010000FA03F318460B464FEA5B
:100A6000C3035B184FEA8303D31803F110035860E4
:100A7000BB68072B2BD84FF4C042C4F20002F87BAE
:100A80004FF4C041C4F20001FC7B23464FEAC3038C
:100A90001B194FEA8303CB185968BB684FEA8303DD
:100AA0004FF00F0404FA03F36FEA03031940BC7B11
:100AB000BB684FEA830304FA03F3194303464FEA82
:100AC000C3031B184FEA8303D318596036E04FF471
:100AD000C042C4F20002F87B4FF4C041C4F20001EE
:100AE000FC7B23464FEAC3031B194FEA8303CB1851
:100AF00003F108031968BB6803F18043A3F10803FD
:100B00004FEA83034FF00F0404FA03F36FEA030381
:100B10001940BC7BBB6803F18043A3F108034FEA93
:100B2000830304FA03F3194303464FEAC3031B1874
:100B30004FEA8303D31803F108031960BB7B002B32
:100B40002DD17B68002B15D04FF4C042C4F20002B7
:100B5000F97BBB684FF0010000FA03F318460B461F
:100B60004FEAC3035B184FEA8303D31803F1100362
:100B7000186014E04FF4C042C4F20002F97BBB6875
:100B80004FF0010000FA03F318460B464FEAC30387
:100B90005B184FEA8303D31803F11003586007F181
:100BA0001407BD4690BD00BF074880470749084A63
:100BB000084B9B1A40F30580043BC858D0503FF7C0
:100BC000FBAF054800470000890D00004C120000F3
:100BD000000000207400002055010000FEE7FEE741
:100BE000FEE7FEE7FEE7FEE7FEE7FEE7FEE7FEE7DD
:100BF000FEE7FEE7FEE7FEE7FEE7FEE7FEE7FEE7CD
:100C0000FEE7FEE7FEE7FEE7FEE7FEE7FEE7FEE7BC
:100C1000FEE7FEE7FEE7FEE7FEE7FEE7FEE700BFD2
:100C200080B400AF48F2B013C0F6E073DB6C4FEA5B
:100C30001363DBB21846BD4680BC704780B582B0F6
:100C400000AF00F019F878604FF40043C4F20C03D1
:100C50005B6803F00F037A6822FA03F37B6040F2CB
:100C60009403C2F200037A681A607B68184607F1A1
:100C70000807BD4680BD00BF80B582B000AF4FF40D
:100C80000043C4F20C03DB6A03F47053B3F5805FD6
:100C90000DD0B3F5005F03D0B3F5006F0BD011E0BA
:100CA00040F20403C2F200031B687B6066E04FF46D
:100CB00000437B6062E040F20003C2F200031B6865
:100CC0007B605BE04FF40043C4F20C03DB6803F489
:100CD000E063B3F5007F24D0B3F5007F05D8002B87
:100CE00036D0B3F5807F22D043E0B3F5806F0CD0CF
:100CF000B3F5A06F03D0B3F5407F0CD039E04FF4CB
:100D00007C53C0F2AB137B6037E046F64073C0F211
:100D100040137B6031E049F68073C0F2D5037B60FD
:100D20002BE04DF6C003C0F2A7037B6025E0FFF780
:100D300077FF0346122B05D94BF24053C0F26403F0
:100D40007B601AE04CF6C073C0F26A037B6014E06B
:100D5000FFF766FF0346122B05D94FF49F43C0F2FD
:100D600012037B6009E044F24023C0F20F037B6072
:100D700003E04FF000037B6000BF00BF7B681846B4
:100D800007F10807BD4680BD80B400AFBD4680BCFA
:100D9000704700BF80B400AF4FF400431846BD4613
:100DA00080BC704780B400AF4FF47A731846BD46DC
:100DB00080BC704780B400AF40F20403C2F200036D
:100DC0001B681846BD4680BC704700BF80B582B026
:100DD00000AF03463960FB71FB79052B02D83B68F5
:100DE0000F2B07D941F2E010C0F2000040F222219F
:100DF000FFF7A2FA4FF4C042C4F20002F9793B684F
:100E00004FF0010000FA03F318460B464FEAC30304
:100E10005B184FEA8303D31803F11803186007F136
:100E20000807BD4680BD00BF80B582B000AF48F264
:100E30001010C0F202004FF00101FFF7B1FB4FF4B8
:100E4000C440C0F202004FF00101FFF7A9FB4FF0D0
:100E500000037B601BE041F23023C0F200037A689C
:100E600013F8321041F23022C0F200027B684FEAE0
:100E7000C303D3185B68084619464FF004024FF0CD
:100E80000003FFF7ADFD7B6803F101037B607B6826
:100E9000002BE0DD4FF00003184607F10807BD46C0
:100EA00080BD00BF80B582B000AF78607B68002B4A
:100EB00019DB7B68002B16DC41F23023C0F2000303
:100EC0007A6813F8321041F23022C0F200027B68D7
:100ED0004FEAC303D3185B6808461946FFF776FF4D
:100EE0004FF0000301E04FF0FF33184607F1080709
:100EF000BD4680BD80B400AF4FF40043C4F20C0384
:100F00004FF40042C4F20C02526C42F040025A64A8
:100F10004FF4C043C4F200034FF4C042C4F20002D5
:100F2000D2F8202142F00402C3F820214FF4C0433C
:100F3000C4F200034FF4C042C4F20002D2F82021F0
:100F400022F4407242F48072C3F820214FF4C0436F
:100F5000C4F200034FF4C042C4F20002126D22F04A
:100F600070421A654FF4C043C4F200034FF4C0420C
:100F7000C4F20002126D42F080421A654FF4004341
:100F8000C4F20C034FF010021A6200BF4FF400438A
:100F9000C4F20C03DB6A03F02003002BF6D04EF6FC
:100FA000F053CEF20003DB6803F08073002B3BD1DB
:100FB0004EF6F053CEF200034EF6F052CEF200029F
:100FC000D26842F08072DA604FF48053CEF20003B0
:100FD00041F2FF32C4F201021A604FF00003CEF278
:100FE00004034FF00F021A614FF00003CEF2040326
:100FF0004FF00202C3F8F0204FF00003CEF20403DA
:101000004FF48072C3F804234FF060424CF65563EE
:10101000CCF2AC53C2F8B03F4FF060424FF009033E
:10102000C0F20103C2F8803EBD4680BC704700BFDD
:1010300080B582B000AF4FF07E637B607B681B6839
:10104000002B02D14FF0000303E0FFF753FF4FF0F6
:101050000103184607F10807BD4680BD10B5034CD3
:1010600014B1AFF3008010BD204610BD0000000099
:1010700008B5084B04461BB10021AFF3008001E026
:1010800000F00CF804480068816A01B188472046E6
:1010900000F048F8000000003C12000070B5084B5A
:1010A000084C0025E01A841003EB8406043D1CB1B3
:1010B00072599047013CF9E7BDE8704000F03AB83A
:1010C000700000207400002038B50E4D0E4B002437
:1010D000E81A8510AC4205D00B4951F824209047FE
:1010E0000134F7E700F020F80849094A541AA5101E
:1010F0000024AC4205D0054B53F82400804701344E
:10110000F7E738BD6C0000206C0000206C00002068
:101110007000002082180346934202D003F8011B9E
:10112000FAE77047FEE700BFF8B500BFF8BC08BC9F
:101130009E467047F8B500BFF8BC08BC9E46704795
:10114000433A2F53696C69636F6E4C6162732F531E
:10115000696D706C696369747953747564696F2F14
:1011600076322F646576656C6F7065722F73646B71
:10117000732F65666D33322F76322F656D6C696221
:101180002F7372632F656D5F636D752E63000000B2
:10119000433A2F53696C69636F6E4C6162732F53CE
:1011A000696D706C696369747953747564696F2FC4
:1011B00076322F646576656C6F7065722F73646B21
:1011C000732F65666D33322F76322F656D6C6962D1
:1011D0002F7372632F656D5F6770696F2E630000F8
:1011E000433A5C53696C69636F6E4C6162735C5324
:1011F000696D706C696369747953747564696F5C47
:1012000076325C646576656C6F7065725C73646B76
:10121000735C65666D33325C76322F656D6C696226
:101220002F696E632F656D5F6770696F2E680000B0
:101230000300000007000000430000000800002039
:0412400000000000AA
:0812440010EFFF7F0100000024
:10124C000048E801008000000000000000000000E1
:10125C000000000000000000000000000000000082
:10126C000000000000000000381200000000000028
:10127C000000000000000000000000000000000062
:10128C000000000000000000000000000000000052
:10129C000000000000000000000000000000000042
:1012AC00000000000000000000000000250100000C
:0412BC00010100002C
:0400000300000BA945
:00000001FF
