:1000000000100020111200004712000049120000E9
:100010004B1200004D1200004F120000451200006C
:100020004512000045120000451200005112000068
:100030005312000045120000551200000903000091
:1000400059120000811100005D1200005F120000D3
:1000500061120000631200006512000067120000C8
:1000600069120000C91100006D120000790A000039
:10007000090B0000731200007512000077120000D7
:10008000791200007B1200007D1200007F12000038
:1000900081120000831200008512000000000000A1
:1000A0000000000000000000000000000000000050
:1000B0000000000000000000000000000000000040
:1000C0000000000000000000000000000000000030
:1000D0000000000000000000000000000000000020
:1000E0000000000000000000000000000000000010
:1000F0000000000000000000000000000000000000
:1001000010B5054C237833B9044B13B10448AFF351
:1001100000800123237010BD7C000020000000003F
:100120005016000008B5064B1BB106480649AFF350
:1001300000800648036813B1054B03B1984708BD1A
:100140000000000050160000800000207C0000200D
:1001500000000000154B002B08BF134B9D46A3F574
:10016000803A00218B460F461348144A121A01F0B8
:1001700005FA0F4B002B00D098470E4B002B00D0F8
:1001800098470020002104000D000D48002802D0EF
:100190000C48AFF3008001F0CBF92000290000F0FB
:1001A000CFF901F0B1F900BF0000080000100020F5
:1001B00000000000000000007C00002090010020F2
:1001C0000000000000000000042802D1014B0122C1
:1001D0001A6070479C00002008B50848012100F013
:1001E000CBFC0748012100F0C7FC002003460E218C
:1001F000042200F037FF002008BD00BF108102007C
:1002000000620200F0B43B4B3B4A196886B00131F2
:1002100019600E244FF48045012115610191019B65
:10022000952B05D8019B01330193019B952BF9D99F
:1002300055610091009B952B05D8009B01330093DD
:10024000009B952BF9D9013CE7D12C4AC31782FBBF
:1002500000102B4AC3EBA003B3F5807F98BF1C4668
:10026000284E2548146007254FF48041012224FAC6
:1002700005F303F0010346F8043DF3B107270161DC
:100280000592059BC72B05D8059B01330593059B5C
:10029000C72BF9D941610492049BC72B05D8049B55
:1002A00001330493049BC72BF9D9013FE7D115F122
:1002B000FF35DCD206B0F0BC70470A27016103921B
:1002C000039B632B05D8039B01330393039B632B91
:1002D000F9D941610292029B632B05D8029B01333D
:1002E0000293029B632BF9D9013FE7D115F1FF354A
:1002F000BDD2DFE7A40000200060004067666666AC
:100300009800002038010020024B1A6801321A6060
:10031000704700BF5001002038B50020874C0246CE
:100320000146082300F014FC22682368834D9B1AC1
:10033000B3F5FA7FF9D3012000211722A22300F0A0
:1003400007FC0120AA211722A22300F001FC0220B1
:1003500000211F223E2300F0FBFB03200021172277
:10036000702300F0F5FB042000211F223F2300F042
:10037000EFFB00210A460520322300F0E9FB0620AE
:1003800000210722CE2300F0E3FB072000210822F2
:10039000022300F0DDFB082000210F229E2300F045
:1003A000D7FB092000210722D02300F0D1FB0A202F
:1003B00000210F229F2300F0CBFB0B2000210F22F6
:1003C000D22300F0C5FB0C20002117226E2300F081
:1003D000BFFB00210A460D20042300F0B9FB0E20CC
:1003E00000210722CF2300F0B3FB0F2000210722BA
:1003F000D42300F0ADFB102000210F229F2300F03A
:10040000A7FB112000210F22A42300F0A1FB122042
:10041000002117226F2300F09BFB132000211722DD
:10042000742300F095FB142000211F223F2300F0CD
:100430008FFB00210A460B46152000F089FB0021A6
:100440000A461620032300F083FB17200021072211
:10045000D02300F07DFB182000210722D32300F0D9
:1004600077FB192000210F22A02300F071FB1A2036
:1004700000210F22A32300F06BFB1B200021172279
:10048000702300F065FB1C2000211722732300F06D
:100490005FFB1D2000211F223F2300F059FB1E207F
:1004A00000210722082300F053FB00210A460B46D7
:1004B0001F2000F04DFB00210A460B46202000F0D3
:1004C00047FB00210A462120FD2300F041FB2022AA
:1004D00013462220012100F03BFB232002210122B0
:1004E000002300F035FB00210A460B46242000F0D3
:1004F0002FFB00210A460B46252000F029FB002196
:100500000A460B46262000F023FB00210A460B4634
:10051000272000F01DFB00210A460B46282000F092
:1005200017FB00210A460B46292000F011FB2A6820
:1005300023689B1A632BFBD938BD00BF50010020F4
:100540002DE9F04F87B000F079FF9A48012100F0C3
:1005500013FB994C032007210522012300F082FDA3
:1005600080230522C4F8803001200C21002300F0F4
:1005700079FD4FF48053A3639048012100F0FCFA09
:1005800001200146024600F03DF98D4800F08CFB49
:100590008C4BA3FB00129209013AB2F1807F80F0EC
:1005A000B980894B894DE02600200721884C5A608C
:1005B00085F823609860196023682268844ED21AF7
:1005C000B2F5FA7FF9D301252A460220042100233F
:1005D000009500F003FD00F0A9FD2A460220042149
:1005E000002300F03FFD002213460220052100F009
:1005F00039FD0022134602200C2100F033FD0022B9
:10060000134602200D2100F02DFD0022134628463E
:100610000B2100F027FD002213460220062100F0E6
:1006200021FD05210A460023032000F01BFD624B3B
:100630002022DA6733682268654DD21AC72AFAD9B0
:100640005D4B8022DA67032001230621002200F09F
:1006500009FD2B682268D21AC72AFBD9FFF75CFE76
:100660005C4A112300925C485C4A4FF4807100F0B0
:10067000DBF904205A4900F067FD5A4B2022002183
:1006800083F80B13DFF86C9183F80923DFF868A176
:1006900083F80123FFF7A0FDDFF8548140F2C53352
:1006A000514F524EC9F8003055463B684FF0010B90
:1006B00003EB0B0EC7F800E0DFF830E10024C8F8C8
:1006C00000B0CEF80040DFF834E120462146224653
:1006D0005B46CAF80040CEF8004000F039FA2146E7
:1006E000224623462E2000F033FA20462146224699
:1006F0005B4600F02DFA2146224623462F2000F0CB
:1007000027FA3449DFF8F8E04A79DEF800C00B46F2
:100710000AB9FEE7FEE7304A897950795C710290A8
:100720000029F6D0917993F807B09C710391BBF141
:10073000000FEED0000430603068DC7140EA012127
:100740003160D6F800B0D179587B4BEA010BC6F87E
:1007500000B0049100B9FEE7507B997B5C73029076
:100760000029F8D0917B93F80FB09C730CF1060C24
:100770000391BBF1000FEED0000428602868D27B03
:1007800040EA01212960DC732B6804921A432A6035
:1007900032684FF47A7101FB02F22B68CEF800C088
:1007A00092FBF3F31846C9F80030FFF72BFD104B0E
:1007B0001C607AE700620200006000400032020024
:1007C00020000400D34D621010E000E000ED00E0D6
:1007D00050010020000100205401002000000020F2
:1007E000C901000000E100E0AC000020B0000020E2
:1007F0009C00002008000020A80000201401002018
:10080000A00000202DE9F04105460E4680B30128E6
:100810002CD1824CDFF80CC233024FF4C0684FF485
:100820004067002043F00F030D21C4F81480C4F882
:1008300000C0E760E06461606365DAB11523E360DE
:100840002368012D43F48033236041F6F9734FF0A0
:1008500001084FF00407A36417D01ED3022D1AD14C
:10086000002E56D0012E3AD0BDE8F081BDE8F081CF
:100870006B4CCFE70523E360012D41F6F9734FF090
:1008800004084FF00107A364E7D1002E75D0012EB4
:1008900059D0BDE8F081BDE8F081012E00F0A380C1
:1008A000C0F08780022E40F0828030463A460B210D
:1008B000002300F0D7FB304642460A21002300F017
:1008C000D1FB30463A460821002300F0CBFB3046EE
:1008D0003A4609210023BDE8F04100F0C3BB304691
:1008E0003A460321002300F0BDFB30464246042176
:1008F000002300F0B7FB30463A460621002300F003
:10090000B1FB30463A4605210023BDE8F04100F036
:10091000A9BB284629463A46334600F0A3FB2846A1
:1009200042463346032100F09DFB28463A463346B3
:10093000052100F097FB28463A4633460421BDE8DE
:10094000F04100F08FBB00210B463A46032000F037
:1009500089FB314642460320002300F083FB03203D
:1009600001463A46002300F07DFB3A46032002216F
:100970000023BDE8F04100F075BB31463A463346EE
:10098000022000F06FFB424629463346022000F069
:1009900069FB28463A463346082100F063FB2846A7
:1009A0003A4633460721BDE8F04100F05BBBBDE8A5
:1009B000F0813A4604200A21002300F053FB42460E
:1009C00004200B21002300F04DFB3A4604200D21AA
:1009D000002300F047FB3A4604200C210023BDE829
:1009E000F04100F03FBB3A4604200721002300F00D
:1009F00039FB424604200621002300F033FB04208B
:100A000001463A46002300F02DFB3A46042005211A
:100A10000023BDE8F04100F025BB00BF00C400404A
:100A200000C0004001040010F0B40D4B0D4C0E4FFF
:100A30000E4DDFF840C04FF40062002639602E6092
:100A40000499CCF80000DA60C4F880212260D86CE8
:100A5000074A40F00400D864F0BC1160704700BF42
:100A600000C4004000E100E07001002014010020FB
:100A7000800100206C0100201B4B30B41A68013249
:100A80001A6072B6194B1A491A68541C1CBF0132FD
:100A90001A600869000606D5164C1748CD6921680A
:100AA00004688C4209DB1549086801300860013A86
:100AB0001A6002B962B630BC7047114902680C680E
:100AC0001049A554026809680132026002680120D9
:100AD0000A440A4902F8010C08681A6801300860E3
:100AE000002AE4D130BC7047B8000020BC000020D0
:100AF00000C400407001002014010020B400002058
:100B00006C010020800100200D4B30B41A695206A0
:100B10000ED50C48016889B10B4A0C4C1568495D2B
:100B20005963116823680131116012689A4201D03B
:100B300030BC70470023036030BC70475963F7E74F
:100B400000C40040840100208801002078010020BA
:100B500070B4074E3469064D6406FBD5686369635B
:100B600028466A636B6303699B06FCD570BC7047BB
:100B700000C40040FEE700BFC0F30323013B30B4D4
:100B8000052B25D8DFE803F01B171F21031D134A8F
:100B90001024134DC0F304306B6DDB0704D530BC5B
:100BA00002449200116070472B6D1C42F7D02B6DF0
:100BB0001C42F9D1F3E70B4AC0F30430EFE70A4ACD
:100BC000FAE70A4AF8E70A4AF6E70A4A0124E0E7A0
:100BD000094840F23E4130BCFFF7CCBF0003E410AF
:100BE00000800C402002E4104000E410C003E41038
:100BF0000002E410C002E410A815000000F00F008D
:100C0000013808B503283ED8DFE800F02B1C0D02A0
:100C1000234B1B6813F0805333D0B3F1805F0CBFBC
:100C20000820012008BD1E4A936A03F00C03082B1C
:100C300032D00C2B32D0042B2CD0936ADB020ED591
:100C4000092008BD164B986A00F00300022819D04D
:100C5000032823D001281DD09B6ADA03F0D4012099
:100C600008BD0F4BDB6A03F47053B3F5805F11D0FE
:100C7000B3F5005F10D0B3F5006F0CBF0420052062
:100C800008BD072008BD074840F28751FFF772FFF3
:100C9000002008BD032008BD022008BD062008BDB5
:100CA00000800C40A815000000F47810B0F5402F2B
:100CB00008B500F0078115D9B0F5901F00F0DA8073
:100CC00040F28B80B0F5C01F31D0B0F5D01F6DD091
:100CD000B0F5A01F51D0B8484FF49D61FFF74AFF0F
:100CE000002008BDB0F5802F00F0E88040F294802D
:100CF000B0F5002F29D0B0F5202F00F0CA80B0F554
:100D0000C02FE8D1AD4B9B6A03F00303022B00F028
:100D10001981032B00F0FA80012B00F01781A74BFB
:100D20009B6A180CDDD0BDE8084000F07DBBA448EC
:100D3000FFF764FF072839D008287AD09E484FF47F
:100D4000CA71FFF717FF002008BD9C4A936A03F0A1
:100D50000303022B00F01381032B00F0E380012B2F
:100D600000F0F880936A180C01D000F05DFB934B03
:100D70009B6EC3F30313D84008BD904B9B6AC3F32B
:100D80008103022B00F0E980032B00F0C780012BC8
:100D900000F0F280894B9B6A180D01D000F044FBF3
:100DA000864B1B6F03F00303D84008BD834B5B6980
:100DB00003F4E063B3F5007F00F0F28040F29E8020
:100DC000B3F5C06F00F0F080B3F5E06F00F0EA809B
:100DD000B3F5407F84D17B4808BDB0F5602F2CD09F
:100DE000B0F5801F7FF477AF744A936A03F0030372
:100DF000022B00F0BB80032B00F09880012B00F049
:100E0000C780936A1B0C40F0D18000206B4B9B6E17
:100E100003F00303D84008BD58B1B0F5003F7FF49C
:100E20005AAF00F09BFA654B9B6803F00F03D84064
:100E300008BDBDE8084000F091BA604A936A03F02B
:100E40000303022B00F09E80032B73D0012B00F0D4
:100E50008780936A180C01D000F0E6FA574B9A6E1F
:100E6000DB6FC2F30132D04003F007030133B0FB64
:100E7000F3F008BD514A936AC3F38103022B61D09A
:100E8000032B43D0012B61D0936A180D3FF429AF97
:100E900049E74A4A936A03F00303022B75D0032BF8
:100EA0004CD0012B77D0936A1B0C40F0828000203D
:100EB000424B9B6EC3F30323D84008BDBDE80840F6
:100EC00000F0E2B93D4A936A03F00303022B50D0CD
:100ED000032B1FD0012B46D0936A180C01D000F0D1
:100EE000A3FA364B10229B6EB2FA82F2D2B2C2F152
:100EF0001F02C3F301331344D84008BD002B4DD06B
:100F0000B3F5807F7FF4ECAE2F4808BD00F0BCF94C
:100F1000400808BD00F0B8F94008E2E700F0B4F975
:100F200040083DE700F0B0F9400820E700F0ACF9D8
:100F300040086BE700F0A8F940088FE700F0A4F93B
:100F40004008B5E7BDE8084000F072BABDE80840C7
:100F500000F066BA00F064FA09E700F069FA1FE7EA
:100F600000F05EFA7AE700F05BFABAE700F060FAA8
:100F70004CE700F05DFAB4E700F052FA10E700F039
:100F800057FAF4E600F054FA68E700F051FA8FE7F8
:100F900000F046FA3AE700F043FA89E70B4808BD4B
:100FA0000B4808BD0B4808BD0B4808BD00F03CFAD3
:100FB0002CE700F039FA7BE7A815000000800C4010
:100FC0000400180040420F00C0D8A700809FD50041
:100FD000C0CF6A00406F4001003FAB012DE9F041F6
:100FE000052805460C46164698469DF8187020D8E8
:100FF0000F291ED8072C22D9A4F108039B000F2229
:101000009A409D40144BD3F8041121EA0202154383
:10101000C3F804510122A24010490F4B214489001A
:101020000E60C1F88080C3F81C21C1F80071BDE8D2
:10103000F0810B489721FFF79DFD072CDCD8A3001A
:101040000F229A409D40044BD3F8001121EA02027E
:101050001543C3F80051DDE70060004040088310ED
:10106000F81500000528F8B504460D4616461F463B
:1010700022D80F2920D82EBBE200072D2FD8AB0095
:101080004FF00F0C0CFA03FC06FA03F31119890058
:1010900001F1804101F5C041486820EA0C0003439A
:1010A0004B6046B9012303FA05F522449FBB1D4B53
:1010B000920013445D60F8BD1B48CC21FFF75AFD38
:1010C000002ED9D00121A940E200F7B113199B00ED
:1010D00003F1804303F5C043072D1961CFD905F112
:1010E0008043083B9B004FF00F0C0CFA03FC06FA00
:1010F00003F31119890001F1804101F5C0418868AD
:1011000020EA0C0003438B60CBE71019054B8000ED
:1011100003445960B1E7920002F1804202F5C042F7
:101120001561F8BD10600040F8150000054B4FF444
:1011300000710222C3F880111960C3F880211A607F
:10114000704700BF00E100E010B472B60A4A0B4CD1
:101150001368B3F1FF3F06D044F8201003B962B61C
:101160005DF8044B70476FF0010344F820101360E2
:101170005DF8044B704700BFBC000020C000002099
:101180000F4B70B5D3F81011D3F8142145F2555414
:101190000A401440C3F81C418CB10A4E012594FA50
:1011A000A4F3B3FA83F3DBB205FA03F2184656F858
:1011B000233024EA020403B19847002CEFD170BD1C
:1011C00000600040C00000200F4B70B5D3F8101134
:1011D000D3F814214AF6AA240A401440C3F81C414B
:1011E0008CB10A4E012594FAA4F3B3FA83F3DBB26F
:1011F00005FA03F2184656F8233024EA020403B134
:101200009847002CEFD170BD00600040C000002066
:10121000074880470749084A084B9B1A40F3058056
:10122000043BC858D0503FF7FBAF054800470000CB
:101230001D1400005C160000000000207C0000204F
:1012400055010000FEE7FEE7FEE7FEE7FEE7FEE7EA
:10125000FEE7FEE7FEE7FEE7FEE7FEE7FEE7FEE766
:10126000FEE7FEE7FEE7FEE7FEE7FEE7FEE7FEE756
:10127000FEE7FEE7FEE7FEE7FEE7FEE7FEE7FEE746
:10128000FEE7FEE7FEE700BF274AD36A03F4705388
:10129000B3F5805F25D0B3F5005F1FD0B3F5006FC5
:1012A00011D0D36803F4E063B3F5007F3AD01BD9C3
:1012B000B3F5806F34D0B3F5A06F2FD0B3F5407F76
:1012C00020D0002101E0194B1968174A184B5068CB
:1012D00000F00F0021FA00F018607047154B1968F4
:1012E000F3E74FF40041F0E773B1B3F5807FE8D145
:1012F000114B124AD96C124BB1F1985F34BF1146B1
:101300001946E2E70F49E0E70B4B0F4AD96C0F4B48
:10131000B1F1985F34BF11461946D6E70C49D4E7BE
:101320000C49D2E70C49D0E700800C4010000020A7
:101330008C0100200C000020B081E00FC0CF6A00BB
:1013400040B56400809FD50040420F00804F1200DE
:10135000003FAB01406F4001C0D8A700234AD36AC9
:1013600003F47053B3F5805F1DD0B3F5005F17D061
:10137000B3F5006F11D0D36803F4E063B3F5007FD9
:1013800032D013D9B3F5806F2CD0B3F5A06F27D02E
:10139000B3F5407F18D000207047154B1868704790
:1013A000144B186870474FF40040704773B1B3F5A1
:1013B000807FF0D1104B114AD86C114BB0F1985F7F
:1013C00034BF1046184670470E4870470A4B0E4A05
:1013D000D86C0E4BB0F1985F34BF1046184670477A
:1013E0000B4870470B4870470B48704700800C4013
:1013F000100000200C000020B081E00FC0CF6A0078
:1014000040B56400809FD50040420F00804F12001D
:10141000003FAB01406F4001C0D8A700704700BF3C
:101420004FF40040704700BF4FF47A70704700BF20
:10143000014B1868704700BF0C0000204FF07E631E
:1014400018682DE9F00310B9BDE8F003704726498C
:10145000264B4A6C102042F040024A64D3F82041E7
:101460000A4644F00404C3F82041D3F8204124F490
:10147000407444F48074C3F820411C6D24F070441F
:101480001C651C6D44F080441C650862D36A990693
:10149000FCD5174BDA68D20121D4D868154ADFF899
:1014A0006080DFF86090144D144C40F0807002278B
:1014B0004FF480764FF060414FF00F0CD860C8F8C1
:1014C00000900120C2F810C0C2F8F070C2F80463A6
:1014D000C1F8B05FC1F8804EBDE8F003704701204D
:1014E000BDE8F003704700BF00800C400060004082
:1014F000F0ED00E0000004E055CEACC509000100AD
:10150000001000E0FF13014008B5074B044613B17B
:101510000021AFF30080054B1868836A03B1984738
:10152000204600F033F800BF000000004C16000019
:1015300070B50E4B0E4D0024ED1AAD101E46AC4298
:1015400004D056F8242090470134F8E700F020F842
:10155000084D094B0024ED1AAD101E46AC4204D0D4
:1015600056F8242090470134F8E770BD740000203D
:10157000740000207800002074000020024403461C
:10158000934202D003F8011BFAE77047FEE700BF61
:10159000F8B500BFF8BC08BC9E467047F8B500BF60
:1015A000F8BC08BC9E467047433A2F53696C696388
:1015B0006F6E4C6162732F53696D706C69636974EF
:1015C0007953747564696F2F76322F646576656C14
:1015D0006F7065722F73646B732F65666D33322F76
:1015E00076322F656D6C69622F7372632F656D5F44
:1015F000636D752E63000000433A2F53696C696375
:101600006F6E4C6162732F53696D706C696369749E
:101610007953747564696F2F76322F646576656CC3
:101620006F7065722F73646B732F65666D33322F25
:1016300076322F656D6C69622F7372632F656D5FF3
:101640006770696F2E6300004300000014000020E3
:041650000000000096
:0816540000EBFF7F0100000024
:10165C0054455354000000000100000000800000BD
:10166C000048E8010000000000000000000000003D
:10167C00000000000000000000000000000000005E
:10168C0000000000481600000000000000000000F0
:10169C00000000000000000000000000000000003E
:1016AC00000000000000000000000000000000002E
:1016BC00000000000000000000000000000000001E
:0C16CC00000000002501000001010000EA
:0400000300001211D6
:00000001FF
