:1000000000100020E51300001B1400001D14000068
:100010001F14000021140000231400001914000014
:100020001914000019140000191400002514000010
:10003000271400001914000029140000FD0200001C
:100040002D1400005513000031140000331400007B
:100050003514000037140000391400003B14000070
:100060003D1400009D130000411400004D0C0000E1
:10007000DD0C000047140000491400004B14000080
:100080004D1400004F1400005114000053140000E0
:10009000551400005714000059140000000000001F
:1000A0000000000000000000000000000000000050
:1000B0000000000000000000000000000000000040
:1000C0000000000000000000000000000000000030
:1000D0000000000000000000000000000000000020
:1000E0000000000000000000000000000000000010
:1000F0000000000000000000000000000000000000
:1001000010B5054C237833B9044B13B10448AFF351
:1001100000800123237010BD7C000020000000003F
:100120002418000008B5064B1BB106480649AFF37A
:1001300000800648036813B1054B03B1984708BD1A
:100140000000000024180000800000207C00002037
:1001500000000000154B002B08BF134B9D46A3F574
:10016000803A00218B460F461348144A121A01F0B8
:10017000EFFA0F4B002B00D098470E4B002B00D00E
:1001800098470020002104000D000D48002802D0EF
:100190000C48AFF3008001F0B5FA2000290000F010
:1001A000C9F901F09BFA00BF000008000010002010
:1001B00000000000000000007C000020240300205C
:1001C0000000000000000000042802D1014B0122C1
:1001D0001A607047A400002008B50848012100F00B
:1001E000B5FD0748012100F0B1FD002003460E21B6
:1001F000042201F021F8002008BD00BF1081020098
:1002000000620200F0B4394B394A196886B00131F6
:1002100019600E244FF48045012115610191019B65
:10022000952B05D8019B01330193019B952BF9D99F
:1002300055610091009B952B05D8009B01330093DD
:10024000009B952BF9D9013CE7D1A0F2EF23F82BC5
:10025000284B98BFA0F2EE24274E25481C600725A6
:100260004FF48041012224FA05F303F0010346F81C
:10027000043DF3B1072701610592059BC72B05D803
:10028000059B01330593059BC72BF9D94161049266
:10029000049BC72B05D8049B01330493049BC72BF5
:1002A000F9D9013FE7D115F1FF35DCD206B0F0BC3A
:1002B00070470A2701610392039B632B05D8039BB8
:1002C00001330393039B632BF9D941610292029B93
:1002D000632B05D8029B01330293029B632BF9D950
:1002E000013FE7D115F1FF35BDD2DFE7B8000020AF
:1002F00000600040A000002050010020024B1A685E
:1003000001321A60704700BF5401002038B5002048
:10031000874C02460146082300F004FD226823684A
:10032000834D9B1AB3F5FA7FF9D3012000211722E0
:10033000A22300F0F7FC0120AA211722A22300F03B
:10034000F1FC022000211F223E2300F0EBFC0320E1
:1003500000211722702300F0E5FC042000211F2259
:100360003F2300F0DFFC00210A460520322300F085
:10037000D9FC062000210722CE2300F0D3FC072061
:1003800000210822022300F0CDFC082000210F22CA
:100390009E2300F0C7FC092000210722D02300F093
:1003A000C1FC0A2000210F229F2300F0BBFC0B2080
:1003B00000210F22D22300F0B5FC0C2000211722CF
:1003C0006E2300F0AFFC00210A460D20042300F04C
:1003D000A9FC0E2000210722CF2300F0A3FC0F2050
:1003E00000210722D42300F09DFC102000210F22C1
:1003F0009F2300F097FC112000210F22A42300F07E
:1004000091FC1220002117226F2300F08BFC132097
:1004100000211722742300F085FC142000211F22E4
:100420003F2300F07FFC00210A460B46152000F018
:1004300079FC00210A461620032300F073FC1720E4
:1004400000210722D02300F06DFC18200021072294
:10045000D32300F067FC192000210F22A02300F015
:1004600061FC1A2000210F22A32300F05BFC1B205B
:1004700000211722702300F055FC1C2000211722B8
:10048000732300F04FFC1D2000211F223F2300F0AA
:1004900049FC1E2000210722082300F043FC002114
:1004A0000A460B461F2000F03DFC00210A460B4681
:1004B000202000F037FC00210A462120FD2300F017
:1004C00031FC202213462220012100F02BFC2320A6
:1004D00002210122002300F025FC00210A460B46E0
:1004E000242000F01FFC00210A460B46252000F0C6
:1004F00019FC00210A460B46262000F013FC0021BF
:100500000A460B46272000F00DFC00210A460B4648
:10051000282000F007FC00210A460B46292000F0A5
:1005200001FC2A6823689B1A632BFBD938BD00BFE6
:10053000540100202DE9F04F87B001F069F88F4891
:10054000012100F003FC8E4C03200721052201232A
:1005500000F072FE80230522C4F8803001200C21B7
:10056000002300F069FE4FF48053A3638548012106
:1005700000F0ECFB01200146024600F02DFA824813
:1005800000F07CFC814BA3FB00129209013AB2F10E
:10059000807F80F0C9807E4B7E4CE02500200721C3
:1005A0007D4F5A6084F82350986019603B683A6820
:1005B000794DD21AB2F5FA7FF9D3012422460220EE
:1005C00004210023009400F0F3FD00F099FE224680
:1005D00002200421002300F02FFE002213460220F7
:1005E000052100F029FE0022134602200C2100F014
:1005F00023FE0022134602200D2100F01DFE0022E2
:10060000134620460B2100F017FE0022134602205D
:10061000062100F011FE05210A460023032000F008
:100620000BFE574B2022DA672B683A685A4CD21AD5
:10063000C72AFAD9524B8022DA6703200123062108
:10064000002200F0F9FD23683A68D21AC72AFBD9C4
:10065000FFF75CFE514A112300925148514A4FF472
:10066000807100F0CBFA04204F4900F057FE4F4B49
:1006700020224FF0000983F80B9383F8092383F8B5
:100680000123FFF7A9FD4A4EDFF830B1DFF828C19A
:1006900040F2C533DFF8288133600BF1C4040CF15C
:1006A000C405DFF820E10126DEF80030DFF818B1DC
:1006B000DFF810C14FF0000A03EB060ECBF8006024
:1006C000CCF800E0CBF800A0DFF8F4E0DFF8FCC0E5
:1006D000DFF8E0B05046514652463346CEF800A00F
:1006E000CBF800A0CCF800A000F01CFB514652460D
:1006F00053462E2000F016FB5046514652463346D4
:1007000000F010FB5146524653462F2000F00AFBE2
:10071000DFF888E05A469EF80510DFF8B4E01F4B7A
:10072000DEF800C009B9FEE7FEE71D4883F805A022
:100730004679987902961A490028F4D0887993F876
:1007400007B083F806A00390BBF1000FEBD036048E
:10075000C8F80060D8F8006083F807A046EA0020D7
:10076000C8F80000D8F800B0C8795E7B4BEA000BEF
:10077000C8F800B004906EBBFEE700BF0062020044
:10078000006000400032020020000400D34D6210DF
:1007900010E000E000ED00E054010020180100200E
:1007A000E802002004000020C901000000E100E090
:1007B00000000020B000002058010020200200208E
:1007C000B4000020C0000020A40000202C01002064
:1007D000AC0000204E7B987B83F80DA00296002889
:1007E000CAD0887B93F80FB083F80EA00CF1060CEA
:1007F0000390BBF1000FBFD036041660D2F800B0F2
:10080000CE7B4BEA002010601068DFF8B8B13043AF
:100810005BF82910DFF8B0B110601068DBF8002039
:10082000CEF800C09142049683F80FA04FEA890EDB
:1008300000F095805A4A13688B4200F08180594B32
:10084000002203F1040B4BF80E0053F8041FA342DF
:100850000A44FAD1DFF878C153488CFB02C3D2179F
:10086000C2EB231303605149514B524E086853F8B1
:100870000E2031688A4253D0DFF850C1DCF80010F6
:100880008A427DD04C4B00221E1D46F80E0053F8C4
:10089000041FAB420A44FAD1DFF834B1DFF834C1A7
:1008A0008BFB02B3D217C2EB2313DFF81CE13C48E9
:1008B000CCF80030DEF8006002684FF47A73B61AA4
:1008C0003949DFF808C1DFF8ECB003FB06F60A6827
:1008D000DBF80000DCF8001096FBF2F2411A03FB93
:1008E00001F1DFF8F0E003FB02F3DEF80020B9F1DC
:1008F000320F91FBF2F293FBF2F3304918460B6092
:10090000D4BF09F101094FF00009FFF77BFC2C4A25
:10091000002313603A683B689B1A092BFBD9C0E699
:1009200043F80E000022043B53F8041F8A42B8BF6C
:100930000A46AB42F8D1DFF87CB0CBF80020A1E743
:10094000204B43F80E001A68043B53F8041F8A42F8
:10095000A8BF0A46A342F8D1114E32606FE7114E8C
:10096000534606F1040C4CF8290056F8042F934224
:10097000B8BF1346A642F8D113490B60014659E7A8
:100980000B4941F80E0053F8042953F8041F8A421A
:10099000A8BF0A46AB42F8D10C4B1A6072E700BF01
:1009A000C40000201C020020A8000020B00000208D
:1009B000580100209C00002054010020000000206D
:1009C000A40000202002002098000020C800002081
:1009D0001F85EB51BC0000202DE9F04105460E4675
:1009E00080B301282CD1824CDFF80CC233024FF4C3
:1009F000C0684FF44067002043F00F030D21C4F896
:100A00001480C4F800C0E760E06461606365DAB137
:100A10001523E3602368012D43F48033236041F6FE
:100A2000F9734FF001084FF00407A36417D01ED3E9
:100A3000022D1AD1002E56D0012E3AD0BDE8F081F9
:100A4000BDE8F0816B4CCFE70523E360012D41F653
:100A5000F9734FF004084FF00107A364E7D1002EAB
:100A600075D0012E59D0BDE8F081BDE8F081012E8E
:100A700000F0A380C0F08780022E40F082803046D4
:100A80003A460B21002300F0D7FB304642460A21AC
:100A9000002300F0D1FB30463A460821002300F045
:100AA000CBFB30463A4609210023BDE8F04100F077
:100AB000C3BB30463A460321002300F0BDFB30465D
:100AC00042460421002300F0B7FB30463A46062197
:100AD000002300F0B1FB30463A4605210023BDE873
:100AE000F04100F0A9BB284629463A46334600F0BB
:100AF000A3FB284642463346032100F09DFB2846CF
:100B00003A463346052100F097FB28463A463346DD
:100B10000421BDE8F04100F08FBB00210B463A46AE
:100B2000032000F089FB314642460320002300F0F9
:100B300083FB032001463A46002300F07DFB3A4642
:100B4000032002210023BDE8F04100F075BB3146CF
:100B50003A463346022000F06FFB424629463346B0
:100B6000022000F069FB28463A463346082100F08F
:100B700063FB28463A4633460721BDE8F04100F0C2
:100B80005BBBBDE8F0813A4604200A21002300F057
:100B900053FB424604200B21002300F04DFB3A4654
:100BA00004200D21002300F047FB3A4604200C21CD
:100BB0000023BDE8F04100F03FBB3A460420072186
:100BC000002300F039FB424604200621002300F0F8
:100BD00033FB042001463A46002300F02DFB3A4641
:100BE000042005210023BDE8F04100F025BB00BF33
:100BF00000C4004000C0004001040010F0B40D4BE0
:100C00000D4C0E4F0E4DDFF840C04FF40062002631
:100C100039602E600499CCF80000DA60C4F88021B5
:100C20002260D86C074A40F00400D864F0BC116020
:100C3000704700BF00C4004000E100E00403002052
:100C40002C01002014030020000300201B4B30B4B3
:100C50001A6801321A6072B6194B1A491A68541C84
:100C60001CBF01321A600869000606D5164C1748E9
:100C7000CD69216804688C4209DB15490868013098
:100C80000860013A1A6002B962B630BC7047114977
:100C900002680C681049A5540268096801320260B4
:100CA000026801200A440A4902F8010C08681A681F
:100CB00001300860002AE4D130BC7047D000002029
:100CC000D400002000C40040040300202C010020B8
:100CD000CC00002000030020140300200D4B30B492
:100CE0001A6952060ED50C48016889B10B4A0C4CA2
:100CF0001568495D596311682368013111601268F4
:100D00009A4201D030BC70470023036030BC70476A
:100D10005963F7E700C40040180300201C030020BB
:100D20000C03002070B4074E3469064D6406FBD5F1
:100D30006863696328466A636B6303699B06FCD535
:100D400070BC704700C40040FEE700BFC0F303233F
:100D5000013B30B4052B25D8DFE803F01B171F211A
:100D6000031D134A1024134DC0F304306B6DDB07D1
:100D700004D530BC02449200116070472B6D1C42B8
:100D8000F7D02B6D1C42F9D1F3E70B4AC0F30430C6
:100D9000EFE70A4AFAE70A4AF8E70A4AF6E70A4A90
:100DA0000124E0E7094840F23E4130BCFFF7CCBFE8
:100DB0000003E41000800C402002E4104000E41026
:100DC000C003E4100002E410C002E4107C1700002D
:100DD00000F00F00013808B503283ED8DFE800F026
:100DE0002B1C0D02234B1B6813F0805333D0B3F13F
:100DF000805F0CBF0820012008BD1E4A936A03F0E3
:100E00000C03082B32D00C2B32D0042B2CD0936A3D
:100E1000DB020ED5092008BD164B986A00F00300CE
:100E2000022819D0032823D001281DD09B6ADA0399
:100E3000F0D4012008BD0F4BDB6A03F47053B3F507
:100E4000805F11D0B3F5005F10D0B3F5006F0CBF19
:100E50000420052008BD072008BD074840F287513F
:100E6000FFF772FF002008BD032008BD022008BD67
:100E7000062008BD00800C407C17000000F47810AC
:100E8000B0F5402F08B500F0078115D9B0F5901FD7
:100E900000F0DA8040F28B80B0F5C01F31D0B0F5A1
:100EA000D01F6DD0B0F5A01F51D0B8484FF49D6150
:100EB000FFF74AFF002008BDB0F5802F00F0E88062
:100EC00040F29480B0F5002F29D0B0F5202F00F02B
:100ED000CA80B0F5C02FE8D1AD4B9B6A03F0030385
:100EE000022B00F01981032B00F0FA80012B00F097
:100EF0001781A74B9B6A180CDDD0BDE8084000F0B5
:100F00007DBBA448FFF764FF072839D008287AD0B2
:100F10009E484FF4CA71FFF717FF002008BD9C4A96
:100F2000936A03F00303022B00F01381032B00F0FC
:100F3000E380012B00F0F880936A180C01D000F0D8
:100F40005DFB934B9B6EC3F30313D84008BD904BDE
:100F50009B6AC3F38103022B00F0E980032B00F0AE
:100F6000C780012B00F0F280894B9B6A180D01D0DD
:100F700000F044FB864B1B6F03F00303D84008BD11
:100F8000834B5B6903F4E063B3F5007F00F0F2800C
:100F900040F29E80B3F5C06F00F0F080B3F5E06FD3
:100FA00000F0EA80B3F5407F84D17B4808BDB0F5FE
:100FB000602F2CD0B0F5801F7FF477AF744A936A0E
:100FC00003F00303022B00F0BB80032B00F098809A
:100FD000012B00F0C780936A1B0C40F0D1800020E9
:100FE0006B4B9B6E03F00303D84008BD58B1B0F5BE
:100FF000003F7FF45AAF00F09BFA654B9B6803F00B
:101000000F03D84008BDBDE8084000F091BA604A1F
:10101000936A03F00303022B00F09E80032B73D02E
:10102000012B00F08780936A180C01D000F0E6FADB
:10103000574B9A6EDB6FC2F30132D04003F00703C7
:101040000133B0FBF3F008BD514A936AC3F3810347
:10105000022B61D0032B43D0012B61D0936A180D72
:101060003FF429AF49E74A4A936A03F00303022B8E
:1010700075D0032B4CD0012B77D0936A1B0C40F01A
:1010800082800020424B9B6EC3F30323D84008BDEF
:10109000BDE8084000F0E2B93D4A936A03F003035B
:1010A000022B50D0032B1FD0012B46D0936A180C73
:1010B00001D000F0A3FA364B10229B6EB2FA82F2F6
:1010C000D2B2C2F11F02C3F301331344D84008BDAA
:1010D000002B4DD0B3F5807F7FF4ECAE2F4808BDD8
:1010E00000F0BCF9400808BD00F0B8F94008E2E79C
:1010F00000F0B4F940083DE700F0B0F9400820E7FF
:1011000000F0ACF940086BE700F0A8F940088FE761
:1011100000F0A4F94008B5E7BDE8084000F072BA55
:10112000BDE8084000F066BA00F064FA09E700F094
:1011300069FA1FE700F05EFA7AE700F05BFABAE7B7
:1011400000F060FA4CE700F05DFAB4E700F052FA04
:1011500010E700F057FAF4E600F054FA68E700F000
:1011600051FA8FE700F046FA3AE700F043FA89E7D0
:101170000B4808BD0B4808BD0B4808BD0B4808BD0F
:1011800000F03CFA2CE700F039FA7BE77C1700000E
:1011900000800C400400180040420F00C0D8A70097
:1011A000809FD500C0CF6A00406F4001003FAB0177
:1011B0002DE9F041052805460C46164698469DF84F
:1011C000187020D80F291ED8072C22D9A4F10803A3
:1011D0009B000F229A409D40144BD3F8041121EA42
:1011E00002021543C3F804510122A24010490F4BDB
:1011F000214489000E60C1F88080C3F81C21C1F829
:101200000071BDE8F0810B489721FFF79DFD072C89
:10121000DCD8A3000F229A409D40044BD3F8001164
:1012200021EA02021543C3F80051DDE700600040E7
:1012300040088310CC1700000528F8B504460D4679
:1012400016461F4622D80F2920D82EBBE200072DB4
:101250002FD8AB004FF00F0C0CFA03FC06FA03F387
:101260001119890001F1804101F5C041486820EA67
:101270000C0003434B6046B9012303FA05F52244F1
:101280009FBB1D4B920013445D60F8BD1B48CC21F1
:10129000FFF75AFD002ED9D00121A940E200F7B195
:1012A00013199B0003F1804303F5C043072D196117
:1012B000CFD905F18043083B9B004FF00F0C0CFA8F
:1012C00003FC06FA03F31119890001F1804101F5CD
:1012D000C041886820EA0C0003438B60CBE71019FB
:1012E000054B800003445960B1E7920002F180424F
:1012F00002F5C0421561F8BD10600040CC17000037
:10130000054B4FF400710222C3F880111960C3F835
:1013100080211A60704700BF00E100E010B472B68F
:101320000A4A0B4C1368B3F1FF3F06D044F8201073
:1013300003B962B65DF8044B70476FF0010344F8DF
:10134000201013605DF8044B704700BFD4000020EC
:10135000D80000200F4B70B5D3F81011D3F814212A
:1013600045F255540A401440C3F81C418CB10A4E52
:10137000012594FAA4F3B3FA83F3DBB205FA03F27E
:10138000184656F8233024EA020403B19847002C8B
:10139000EFD170BD00600040D80000200F4B70B549
:1013A000D3F81011D3F814214AF6AA240A401440A5
:1013B000C3F81C418CB10A4E012594FAA4F3B3FA88
:1013C00083F3DBB205FA03F2184656F8233024EA19
:1013D000020403B19847002CEFD170BD00600040BB
:1013E000D8000020074880470749084A084B9B1A45
:1013F00040F30580043BC858D0503FF7FBAF054889
:1014000000470000F1150000301800000000002027
:101410007C00002055010000FEE7FEE7FEE7FEE746
:10142000FEE7FEE7FEE7FEE7FEE7FEE7FEE7FEE794
:10143000FEE7FEE7FEE7FEE7FEE7FEE7FEE7FEE784
:10144000FEE7FEE7FEE7FEE7FEE7FEE7FEE7FEE774
:10145000FEE7FEE7FEE7FEE7FEE700BF274AD36AA6
:1014600003F47053B3F5805F25D0B3F5005F1FD050
:10147000B3F5006F11D0D36803F4E063B3F5007FD8
:101480003AD01BD9B3F5806F34D0B3F5A06F2FD00D
:10149000B3F5407F20D0002101E0194B1968174AAD
:1014A000184B506800F00F0021FA00F018607047E8
:1014B000154B1968F3E74FF40041F0E773B1B3F54A
:1014C000807FE8D1114B124AD96C124BB1F1985F71
:1014D00034BF11461946E2E70F49E0E70B4B0F4ACC
:1014E000D96C0F4BB1F1985F34BF11461946D6E75E
:1014F0000C49D4E70C49D2E70C49D0E700800C40F6
:1015000010000020200300200C000020B081E00F1C
:10151000C0CF6A0040B56400809FD50040420F00F4
:10152000804F1200003FAB01406F4001C0D8A700C0
:10153000234AD36A03F47053B3F5805F1DD0B3F52B
:10154000005F17D0B3F5006F11D0D36803F4E063E8
:10155000B3F5007F32D013D9B3F5806F2CD0B3F53B
:10156000A06F27D0B3F5407F18D000207047154BEF
:1015700018687047144B186870474FF40040704764
:1015800073B1B3F5807FF0D1104B114AD86C114B79
:10159000B0F1985F34BF1046184670470E48704748
:1015A0000A4B0E4AD86C0E4BB0F1985F34BF104610
:1015B000184670470B4870470B4870470B487047F8
:1015C00000800C40100000200C000020B081E00FD3
:1015D000C0CF6A0040B56400809FD50040420F0034
:1015E000804F1200003FAB01406F4001C0D8A70000
:1015F000704700BF4FF40040704700BF4FF47A704F
:10160000704700BF014B1868704700BF0C000020F6
:101610004FF07E6318682DE9F00310B9BDE8F003C0
:1016200070472649264B4A6C102042F040024A641B
:10163000D3F820410A4644F00404C3F82041D3F80B
:10164000204124F4407444F48074C3F820411C6D9C
:1016500024F070441C651C6D44F080441C650862D5
:10166000D36A9906FCD5174BDA68D20121D4D86821
:10167000154ADFF86080DFF86090144D144C40F09C
:10168000807002274FF480764FF060414FF00F0CCE
:10169000D860C8F800900120C2F810C0C2F8F070FD
:1016A000C2F80463C1F8B05FC1F8804EBDE8F00332
:1016B00070470120BDE8F003704700BF00800C4078
:1016C00000600040F0ED00E0000004E055CEACC545
:1016D00009000100001000E0FF13014008B5074BAE
:1016E000044613B10021AFF30080054B1868836AEC
:1016F00003B19847204600F033F800BF0000000017
:101700002018000070B50E4B0E4D0024ED1AAD10E0
:101710001E46AC4204D056F8242090470134F8E726
:1017200000F020F8084D094B0024ED1AAD101E46BC
:10173000AC4204D056F8242090470134F8E770BD3D
:101740007400002074000020780000207400002045
:1017500002440346934202D003F8011BFAE77047A4
:10176000FEE700BFF8B500BFF8BC08BC9E46704756
:10177000F8B500BFF8BC08BC9E467047433A2F53EB
:10178000696C69636F6E4C6162732F53696D706C25
:10179000696369747953747564696F2F76322F6445
:1017A0006576656C6F7065722F73646B732F6566F9
:1017B0006D33322F76322F656D6C69622F737263D1
:1017C0002F656D5F636D752E63000000433A2F53E4
:1017D000696C69636F6E4C6162732F53696D706CD5
:1017E000696369747953747564696F2F76322F64F5
:1017F0006576656C6F7065722F73646B732F6566A9
:101800006D33322F76322F656D6C69622F73726380
:101810002F656D5F6770696F2E63000043000000E5
:0818200014000020000000008C
:081828002CE9FF7F0100000024
:1018300001000000544553540000000000800000E7
:101840000048E80100000000000000000000000067
:101850000000000000000000000000000000000088
:10186000000000001C180000000000000000000044
:101870000000000000000000000000000000000068
:101880000000000000000000000000000000000058
:101890000000000000000000000000000000000048
:0C18A00000000000250100000101000014
:04000003000013E501
:00000001FF
