:100000000010002051140000871400008914000023
:100010008B1400008D1400008F1400008514000064
:100020008514000085140000851400009114000060
:1000300093140000851400009514000001030000D3
:1000400099140000C11300009D1400009F140000CB
:10005000A1140000A3140000A5140000A7140000C0
:10006000A914000009140000AD140000B90C000030
:10007000490D0000B3140000B5140000B7140000CF
:10008000B9140000BB140000BD140000BF14000030
:10009000C1140000C3140000C514000000000000DB
:1000A0000000000000000000000000000000000050
:1000B0000000000000000000000000000000000040
:1000C0000000000000000000000000000000000030
:1000D0000000000000000000000000000000000020
:1000E0000000000000000000000000000000000010
:1000F0000000000000000000000000000000000000
:1001000010B5054C237833B9044B13B10448AFF351
:1001100000800123237010BD7C000020000000003F
:100120009018000008B5064B1BB106480649AFF30E
:1001300000800648036813B1054B03B1984708BD1A
:100140000000000090180000800000207C000020CB
:1001500000000000154B002B08BF134B9D46A3F574
:10016000803A00218B460F461348144A121A01F0B8
:1001700025FB0F4B002B00D098470E4B002B00D0D7
:1001800098470020002104000D000D48002802D0EF
:100190000C48AFF3008001F0EBFA2000290000F0DA
:1001A00079FA01F0D1FA00BF000008000010002029
:1001B00000000000000000007C0000205C0B00201C
:1001C0000000000000000000042802D1014B0122C1
:1001D0001A607047A400002008B50848012100F00B
:1001E000EBFD0748012100F0E7FD002003460E214A
:1001F000042201F057F8002008BD00BF1081020062
:100200000062020070B483B0E9B1104E00224FF4D6
:100210008045012435610094009B984205D9009BDC
:1002200001330093009B9842F9D875610194019BBA
:10023000984205D9019B01330193019B9842F9D85B
:1002400001328A42E6D103B070BC704700600040C2
:1002500028B1012807D096200E21FFF7D3BF6420D4
:100260000A21FFF7CFBFC8200721FFF7CBBF00BF90
:100270001E4B70B51A680546013202201A600C4602
:10028000FFF7E6FF1A496FF42F72AB180A68B3F54F
:10029000F97F18488CBF0023A5F52F73164E622AEC
:1002A00040F82230CCBF0022013233600A608CB1AA
:1002B000012C14D0114D072400E03368E34003F013
:1002C0000103184645F8043D013CFFF7C1FF631CDC
:1002D000F3D170BD2046FFF7BBFF3368EAE7C820C3
:1002E0000721FFF78FFF3368E4E700BFBC00002061
:1002F000A800002054010020A0000020540100208C
:10030000024B1A6801321A60704700BF6C06002069
:1003100038B50020874C02460146082300F038FD1E
:1003200022682368834D9B1AB3F5FA7FF9D3012025
:1003300000211722A22300F02BFD0120AA21172261
:10034000A22300F025FD022000211F223E2300F001
:100350001FFD032000211722702300F019FD042047
:1003600000211F223F2300F013FD00210A46052033
:10037000322300F00DFD062000210722CE2300F0DD
:1003800007FD072000210822022300F001FD0820BC
:1003900000210F229E2300F0FBFC092000210722F0
:1003A000D02300F0F5FC0A2000210F229F2300F04B
:1003B000EFFC0B2000210F22D22300F0E9FC0C20DF
:1003C000002117226E2300F0E3FC00210A460D20D5
:1003D000042300F0DDFC0E2000210722CF2300F0D3
:1003E000D7FC0F2000210722D42300F0D1FC1020DD
:1003F00000210F229F2300F0CBFC112000210F22AF
:10040000A42300F0C5FC1220002117226F2300F066
:10041000BFFC132000211722742300F0B9FC142024
:1004200000211F223F2300F0B3FC00210A460B46A7
:10043000152000F0ADFC00210A461620032300F031
:10044000A7FC172000210722D02300F0A1FC1820D0
:1004500000210722D32300F09BFC192000210F224A
:10046000A02300F095FC1A2000210F22A32300F006
:100470008FFC1B2000211722702300F089FC1C2018
:1004800000211722732300F083FC1D2000211F226E
:100490003F2300F07DFC1E2000210722082300F0EE
:1004A00077FC00210A460B461F2000F071FC00215A
:1004B0000A460B46202000F06BFC00210A46212052
:1004C000FD2300F065FC202213462220012100F0CC
:1004D0005FFC232002210122002300F059FC0021AF
:1004E0000A460B46242000F053FC00210A460B4626
:1004F000252000F04DFC00210A460B46262000F086
:1005000047FC00210A460B46272000F041FC002151
:100510000A460B46282000F03BFC00210A460B4609
:10052000292000F035FC2A6823689B1A632BFBD92D
:1005300038BD00BF6C06002070B50F4C002023684A
:1005400001465D1C02460123256000F021FC0021CC
:100550000A460B462E2000F01BFC002001460246F6
:10056000012300F015FCBDE8704000210A460B464F
:100570002F2000F00DBC00BFC4000020012B70B480
:1005800023D0022B03D070BC40F8221070473A4EA3
:1005900050F822303468A34243D0384E3468A34226
:1005A00031D0002340F822101A46C1580433B3F565
:1005B000C87F0A44F9D1324BD11783FB020270BCC9
:1005C000304BC1EB62121A6070472F4E50F8223048
:1005D0003468A34240D02D4E34689C422ED0002374
:1005E00040F822101A46C1580433B3F5C87F0A44B4
:1005F000F9D1234BD11783FB020270BC244BC1EB12
:1006000062121A60704740F8221004680023C5582F
:100610000433AC4228BF2C46B3F5C87FF7D1346011
:10062000BFE7002340F822101C46C5580433AC42F3
:1006300038BF2C46B3F5C87FF7D1F0E740F8221059
:1006400004680023C5580433AC4228BF2C46B3F5D8
:10065000C87FF7D13460C2E7002340F822101C465F
:10066000C5580433AC4238BF2C46B3F5C87FF7D128
:10067000346050F82230AEE79C000020CC0000200F
:100680001F85EB51C000002098000020C80000200A
:10069000B80000202DE9F04F8BB000F0EFFF9D482F
:1006A000012100F089FB9C4C032007210522012336
:1006B00000F0F8FD80230522C4F8803001200C21D1
:1006C000002300F0EFFD4FF48053A3639348012112
:1006D00000F072FB01200146024600F0B3F9904899
:1006E00000F002FC8F4BA3FB00129209013AB2F119
:1006F000807F80F08E818C4B8C4DE026002007217E
:100700008B4C5A6085F823609860196023682268D2
:10071000874ED21AB2F5FA7FF9D301252A46022074
:1007200004210023009500F079FD00F01FFE2A4609
:1007300002200421002300F0B5FD00221346022010
:10074000052100F0AFFD0022134602200C2100F02D
:10075000A9FD0022134602200D2100F0A3FD002276
:10076000134628460B2100F09DFD0022134602206F
:10077000062100F097FD05210A460023032000F022
:1007800091FD654B2022DA6733682268684DD21AE2
:10079000C72AFAD9604B8022DA6703200123062199
:1007A000002200F07FFD2B682268D21AC72AFBD9ED
:1007B000604DFFF7ADFD604A112360484FF4807132
:1007C000009500F051FA5E49042000F0DDFD5D4B1C
:1007D0004FF00008202283F80B8383F8092383F865
:1007E0000123FFF7F9FC5848584B049058495948E1
:1007F00040F2C532584EDFF87091584FDFF86CB1B7
:10080000DFF838A105910390CDF81C80CDF8208049
:10081000CDF824801A60524900230122C9F8002033
:10082000C9F800303B6033600B600293FFF784FE31
:10083000029BDBF800109E4606AA0523E85C002810
:1008400000F0E8801AF8030005F803E00133082BF4
:1008500042F8040FF2D1079B089A1B043B603868EA
:10086000099B40EA02223A603868CA1C03433B6095
:10087000CBF800200D2306AA4FF0000EE85C0028FC
:1008800000F0C9801AF8030005F803E00133102BCB
:1008900042F8040FF2D1079B06311B043360326823
:1008A000089BCBF8001042EA032333603168099BB0
:1008B00042F210720B4333603368934200F2AC8013
:1008C000254A3B682048116801234246FFF756FE3F
:1008D00039681F4842460223FFF750FE049B1A481E
:1008E0001968049003460A4600F5C67001E053F803
:1008F000042F914228BF11468342F8D1059B14482A
:100900001A68184B059019600346114600F5C67029
:1009100030E000BF006202000060004000320200D0
:1009200020000400D34D621010E000E000ED00E074
:100930006C0600201C01002000000020900900200F
:10094000C901000000E100E00008002008000020CC
:1009500070060020A4090020B0000020B400002090
:1009600030010020C8000020A4000020AC000020BE
:1009700053F8041F8A4228BF0A468342F8D12C4804
:100980004FF47A7302603968026803FB01F1306842
:10099000B1FBF2F203FB00F003FB02F3254A4FEA3E
:1009A000880C11684246B0FBF1F12348B3FBF1F328
:1009B000A0FB030303995B0941F828301F4B00217A
:1009C0000393A3F1280E002AB4BFD3F88C0153F887
:1009D0000C00043B7345014402F1FF32F3D101EBFB
:1009E00081014B00164A1846002142F82830FFF7D3
:1009F0003FFCB8F1630FD4BF08F101084FF00008C5
:100A00000023C9F80030226823689B1A0E2BFBD9FB
:100A100001E7FEE7FEE7FEE74FF42F700021FFF746
:100A200027FC226823689B1A0E2BFBD9E8E700BF3E
:100A3000CC000020C80000201F85EB51A409002035
:100A4000E40200202DE9F04105460E4680B301285E
:100A50002CD1824CDFF80CC233024FF4C0684FF443
:100A60004067002043F00F030D21C4F81480C4F840
:100A700000C0E760E06461606365DAB11523E3609C
:100A80002368012D43F48033236041F6F9734FF05E
:100A900001084FF00407A36417D01ED3022D1AD10A
:100AA000002E56D0012E3AD0BDE8F081BDE8F0818D
:100AB0006B4CCFE70523E360012D41F6F9734FF04E
:100AC00004084FF00107A364E7D1002E75D0012E72
:100AD00059D0BDE8F081BDE8F081012E00F0A3807F
:100AE000C0F08780022E40F0828030463A460B21CB
:100AF000002300F0D7FB304642460A21002300F0D5
:100B0000D1FB30463A460821002300F0CBFB3046AB
:100B10003A4609210023BDE8F04100F0C3BB30464E
:100B20003A460321002300F0BDFB30464246042133
:100B3000002300F0B7FB30463A460621002300F0C0
:100B4000B1FB30463A4605210023BDE8F04100F0F4
:100B5000A9BB284629463A46334600F0A3FB28465F
:100B600042463346032100F09DFB28463A46334671
:100B7000052100F097FB28463A4633460421BDE89C
:100B8000F04100F08FBB00210B463A46032000F0F5
:100B900089FB314642460320002300F083FB0320FB
:100BA00001463A46002300F07DFB3A46032002212D
:100BB0000023BDE8F04100F075BB31463A463346AC
:100BC000022000F06FFB424629463346022000F027
:100BD00069FB28463A463346082100F063FB284665
:100BE0003A4633460721BDE8F04100F05BBBBDE863
:100BF000F0813A4604200A21002300F053FB4246CC
:100C000004200B21002300F04DFB3A4604200D2167
:100C1000002300F047FB3A4604200C210023BDE8E6
:100C2000F04100F03FBB3A4604200721002300F0CA
:100C300039FB424604200621002300F033FB042048
:100C400001463A46002300F02DFB3A4604200521D8
:100C50000023BDE8F04100F025BB00BF00C4004008
:100C600000C0004001040010F0B40D4B0D4C0E4FBD
:100C70000E4DDFF840C04FF40062002639602E6050
:100C80000499CCF80000DA60C4F880212260D86CA6
:100C9000074A40F00400D864F0BC1160704700BF00
:100CA00000C4004000E100E03C0B002030010020C7
:100CB0004C0B0020380B00201B4B30B41A6801325B
:100CC0001A6072B6194B1A491A68541C1CBF0132BB
:100CD0001A600869000606D5164C1748CD692168C8
:100CE00004688C4209DB1549086801300860013A44
:100CF0001A6002B962B630BC7047114902680C68CC
:100D00001049A55402680968013202600268012096
:100D10000A440A4902F8010C08681A6801300860A0
:100D2000002AE4D130BC7047D4000020D800002055
:100D300000C400403C0B002030010020D000002007
:100D4000380B00204C0B00200D4B30B41A695206B2
:100D50000ED50C48016889B10B4A0C4C1568495DE9
:100D60005963116823680131116012689A4201D0F9
:100D700030BC70470023036030BC70475963F7E70D
:100D800000C40040500B0020540B0020440B0020F6
:100D900070B4074E3469064D6406FBD56863696319
:100DA00028466A636B6303699B06FCD570BC704779
:100DB00000C40040FEE700BFC0F30323013B30B492
:100DC000052B25D8DFE803F01B171F21031D134A4D
:100DD0001024134DC0F304306B6DDB0704D530BC19
:100DE00002449200116070472B6D1C42F7D02B6DAE
:100DF0001C42F9D1F3E70B4AC0F30430EFE70A4A8B
:100E0000FAE70A4AF8E70A4AF6E70A4A0124E0E75D
:100E1000094840F23E4130BCFFF7CCBF0003E4106C
:100E200000800C402002E4104000E410C003E410F5
:100E30000002E410C002E410E817000000F00F0008
:100E4000013808B503283ED8DFE800F02B1C0D025E
:100E5000234B1B6813F0805333D0B3F1805F0CBF7A
:100E60000820012008BD1E4A936A03F00C03082BDA
:100E700032D00C2B32D0042B2CD0936ADB020ED54F
:100E8000092008BD164B986A00F00300022819D00B
:100E9000032823D001281DD09B6ADA03F0D4012057
:100EA00008BD0F4BDB6A03F47053B3F5805F11D0BC
:100EB000B3F5005F10D0B3F5006F0CBF0420052020
:100EC00008BD072008BD074840F28751FFF772FFB1
:100ED000002008BD032008BD022008BD062008BD73
:100EE00000800C40E817000000F47810B0F5402FA7
:100EF00008B500F0078115D9B0F5901F00F0DA8031
:100F000040F28B80B0F5C01F31D0B0F5D01F6DD04E
:100F1000B0F5A01F51D0B8484FF49D61FFF74AFFCC
:100F2000002008BDB0F5802F00F0E88040F29480EA
:100F3000B0F5002F29D0B0F5202F00F0CA80B0F511
:100F4000C02FE8D1AD4B9B6A03F00303022B00F0E6
:100F50001981032B00F0FA80012B00F01781A74BB9
:100F60009B6A180CDDD0BDE8084000F07DBBA448AA
:100F7000FFF764FF072839D008287AD09E484FF43D
:100F8000CA71FFF717FF002008BD9C4A936A03F05F
:100F90000303022B00F01381032B00F0E380012BED
:100FA00000F0F880936A180C01D000F05DFB934BC1
:100FB0009B6EC3F30313D84008BD904B9B6AC3F3E9
:100FC0008103022B00F0E980032B00F0C780012B86
:100FD00000F0F280894B9B6A180D01D000F044FBB1
:100FE000864B1B6F03F00303D84008BD834B5B693E
:100FF00003F4E063B3F5007F00F0F28040F29E80DE
:10100000B3F5C06F00F0F080B3F5E06F00F0EA8058
:10101000B3F5407F84D17B4808BDB0F5602F2CD05C
:10102000B0F5801F7FF477AF744A936A03F003032F
:10103000022B00F0BB80032B00F09880012B00F006
:10104000C780936A1B0C40F0D18000206B4B9B6ED5
:1010500003F00303D84008BD58B1B0F5003F7FF45A
:101060005AAF00F09BFA654B9B6803F00F03D84022
:1010700008BDBDE8084000F091BA604A936A03F0E9
:101080000303022B00F09E80032B73D0012B00F092
:101090008780936A180C01D000F0E6FA574B9A6EDD
:1010A000DB6FC2F30132D04003F007030133B0FB22
:1010B000F3F008BD514A936AC3F38103022B61D058
:1010C000032B43D0012B61D0936A180D3FF429AF55
:1010D00049E74A4A936A03F00303022B75D0032BB6
:1010E0004CD0012B77D0936A1B0C40F082800020FB
:1010F000424B9B6EC3F30323D84008BDBDE80840B4
:1011000000F0E2B93D4A936A03F00303022B50D08A
:10111000032B1FD0012B46D0936A180C01D000F08E
:10112000A3FA364B10229B6EB2FA82F2D2B2C2F10F
:101130001F02C3F301331344D84008BD002B4DD028
:10114000B3F5807F7FF4ECAE2F4808BD00F0BCF90A
:10115000400808BD00F0B8F94008E2E700F0B4F933
:1011600040083DE700F0B0F9400820E700F0ACF996
:1011700040086BE700F0A8F940088FE700F0A4F9F9
:101180004008B5E7BDE8084000F072BABDE8084085
:1011900000F066BA00F064FA09E700F069FA1FE7A8
:1011A00000F05EFA7AE700F05BFABAE700F060FA66
:1011B0004CE700F05DFAB4E700F052FA10E700F0F7
:1011C00057FAF4E600F054FA68E700F051FA8FE7B6
:1011D00000F046FA3AE700F043FA89E70B4808BD09
:1011E0000B4808BD0B4808BD0B4808BD00F03CFA91
:1011F0002CE700F039FA7BE7E817000000800C408C
:101200000400180040420F00C0D8A700809FD500FE
:10121000C0CF6A00406F4001003FAB012DE9F041B3
:10122000052805460C46164698469DF8187020D8A5
:101230000F291ED8072C22D9A4F108039B000F22E6
:101240009A409D40144BD3F8041121EA0202154341
:10125000C3F804510122A24010490F4B21448900D8
:101260000E60C1F88080C3F81C21C1F80071BDE890
:10127000F0810B489721FFF79DFD072CDCD8A300D8
:101280000F229A409D40044BD3F8001121EA02023C
:101290001543C3F80051DDE70060004040088310AB
:1012A000381800000528F8B504460D4616461F46B6
:1012B00022D80F2920D82EBBE200072D2FD8AB0053
:1012C0004FF00F0C0CFA03FC06FA03F31119890016
:1012D00001F1804101F5C041486820EA0C00034358
:1012E0004B6046B9012303FA05F522449FBB1D4B11
:1012F000920013445D60F8BD1B48CC21FFF75AFDF6
:10130000002ED9D00121A940E200F7B113199B00AA
:1013100003F1804303F5C043072D1961CFD905F1CF
:101320008043083B9B004FF00F0C0CFA03FC06FABD
:1013300003F31119890001F1804101F5C04188686A
:1013400020EA0C0003438B60CBE71019054B8000AB
:1013500003445960B1E7920002F1804202F5C042B5
:101360001561F8BD1060004038180000054B4FF4BF
:1013700000710222C3F880111960C3F880211A603D
:10138000704700BF00E100E010B472B60A4A0B4C8F
:101390001368B3F1FF3F06D044F8201003B962B6DA
:1013A0005DF8044B70476FF0010344F820101360A0
:1013B0005DF8044B704700BFD8000020DC0000201F
:1013C0000F4B70B5D3F81011D3F8142145F25554D2
:1013D0000A401440C3F81C418CB10A4E012594FA0E
:1013E000A4F3B3FA83F3DBB205FA03F2184656F816
:1013F000233024EA020403B19847002CEFD170BDDA
:1014000000600040DC0000200F4B70B5D3F81011D5
:10141000D3F814214AF6AA240A401440C3F81C4108
:101420008CB10A4E012594FAA4F3B3FA83F3DBB22C
:1014300005FA03F2184656F8233024EA020403B1F1
:101440009847002CEFD170BD00600040DC00002008
:10145000074880470749084A084B9B1A40F3058014
:10146000043BC858D0503FF7FBAF05480047000089
:101470005D1600009C180000000000207C00002089
:1014800055010000FEE7FEE7FEE7FEE7FEE7FEE7A8
:10149000FEE7FEE7FEE7FEE7FEE7FEE7FEE7FEE724
:1014A000FEE7FEE7FEE7FEE7FEE7FEE7FEE7FEE714
:1014B000FEE7FEE7FEE7FEE7FEE7FEE7FEE7FEE704
:1014C000FEE7FEE7FEE700BF274AD36A03F4705346
:1014D000B3F5805F25D0B3F5005F1FD0B3F5006F83
:1014E00011D0D36803F4E063B3F5007F3AD01BD981
:1014F000B3F5806F34D0B3F5A06F2FD0B3F5407F34
:1015000020D0002101E0194B1968174A184B506888
:1015100000F00F0021FA00F018607047154B1968B1
:10152000F3E74FF40041F0E773B1B3F5807FE8D102
:10153000114B124AD96C124BB1F1985F34BF11466E
:101540001946E2E70F49E0E70B4B0F4AD96C0F4B06
:10155000B1F1985F34BF11461946D6E70C49D4E77C
:101560000C49D2E70C49D0E700800C401000002065
:10157000580B00200C000020B081E00FC0CF6A00A3
:1015800040B56400809FD50040420F00804F12009C
:10159000003FAB01406F4001C0D8A700234AD36A87
:1015A00003F47053B3F5805F1DD0B3F5005F17D01F
:1015B000B3F5006F11D0D36803F4E063B3F5007F97
:1015C00032D013D9B3F5806F2CD0B3F5A06F27D0EC
:1015D000B3F5407F18D000207047154B186870474E
:1015E000144B186870474FF40040704773B1B3F55F
:1015F000807FF0D1104B114AD86C114BB0F1985F3D
:1016000034BF1046184670470E4870470A4B0E4AC2
:10161000D86C0E4BB0F1985F34BF10461846704737
:101620000B4870470B4870470B48704700800C40D0
:10163000100000200C000020B081E00FC0CF6A0035
:1016400040B56400809FD50040420F00804F1200DB
:10165000003FAB01406F4001C0D8A700704700BFFA
:101660004FF40040704700BF4FF47A70704700BFDE
:10167000014B1868704700BF0C0000204FF07E63DC
:1016800018682DE9F00310B9BDE8F003704726494A
:10169000264B4A6C102042F040024A64D3F82041A5
:1016A0000A4644F00404C3F82041D3F8204124F44E
:1016B000407444F48074C3F820411C6D24F07044DD
:1016C0001C651C6D44F080441C650862D36A990651
:1016D000FCD5174BDA68D20121D4D868154ADFF857
:1016E0006080DFF86090144D144C40F08070022749
:1016F0004FF480764FF060414FF00F0CD860C8F87F
:1017000000900120C2F810C0C2F8F070C2F8046363
:10171000C1F8B05FC1F8804EBDE8F003704701200A
:10172000BDE8F003704700BF00800C40006000403F
:10173000F0ED00E0000004E055CEACC5090001006A
:10174000001000E0FF13014008B5074B044613B139
:101750000021AFF30080054B1868836A03B19847F6
:10176000204600F033F800BF000000008C18000095
:1017700070B50E4B0E4D0024ED1AAD101E46AC4256
:1017800004D056F8242090470134F8E700F020F800
:10179000084D094B0024ED1AAD101E46AC4204D092
:1017A00056F8242090470134F8E770BD74000020FB
:1017B00074000020780000207400002002440346DA
:1017C000934202D003F8011BFAE77047FEE700BF1F
:1017D000F8B500BFF8BC08BC9E467047F8B500BF1E
:1017E000F8BC08BC9E467047433A2F53696C696346
:1017F0006F6E4C6162732F53696D706C69636974AD
:101800007953747564696F2F76322F646576656CD1
:101810006F7065722F73646B732F65666D33322F33
:1018200076322F656D6C69622F7372632F656D5F01
:10183000636D752E63000000433A2F53696C696332
:101840006F6E4C6162732F53696D706C696369745C
:101850007953747564696F2F76322F646576656C81
:101860006F7065722F73646B732F65666D33322FE3
:1018700076322F656D6C69622F7372632F656D5FB1
:101880006770696F2E6300004300000014000020A1
:041890000000000054
:08189400C0E8FF7F0100000025
:10189C00544553540000000001000000008000007B
:1018AC000048E801000000000000000000000000FB
:1018BC00000000000000000000000000000000001C
:1018CC00000000008818000000000000000000006C
:1018DC0000000000000000000000000000000000FC
:1018EC0000000000000000000000000000000000EC
:1018FC0000000000000000000000000000000000DC
:0C190C00000000002501000001010000A7
:040000030000145194
:00000001FF
