:1000000000100020691600009F160000A1160000D5
:10001000A3160000A5160000A71600009D160000FC
:100020009D1600009D1600009D160000A9160000F8
:10003000AB1600009D160000AD1600000502000082
:10004000B1160000D9150000B5160000B716000063
:10005000B9160000BB160000BD160000BF16000058
:10006000C116000021160000C5160000D10E0000C8
:10007000610F0000CB160000CD160000CF16000067
:10008000D1160000D3160000D5160000D7160000C8
:10009000D9160000DB160000DD160000000000008D
:1000A0000000000000000000000000000000000050
:1000B0000000000000000000000000000000000040
:1000C0000000000000000000000000000000000030
:1000D0000000000000000000000000000000000020
:1000E0000000000000000000000000000000000010
:1000F0000000000000000000000000000000000000
:1001000010B5054C237833B9044B13B10448AFF351
:1001100000800123237010BD7C000020000000003F
:10012000A81A000008B5064B1BB106480649AFF3F4
:1001300000800648036813B1054B03B1984708BD1A
:1001400000000000A81A0000800000207C000020B1
:1001500000000000154B002B08BF134B9D46A3F574
:10016000803A00218B460F461348144A121A01F0B8
:1001700031FC0F4B002B00D098470E4B002B00D0CA
:1001800098470020002104000D000D48002802D0EF
:100190000C48AFF3008001F0F7FB2000290000F0CD
:1001A0004DF901F0DDFB00BF000008000010002049
:1001B00000000000000000007C000020F80A002081
:1001C0000000000000000000042802D1014B0122C1
:1001D0001A607047A400002008B50848012100F00B
:1001E000F7FE0748012100F0F3FE002003460E2130
:1001F000042201F063F9002008BD00BF1081020055
:1002000000620200024B1A6801321A60704700BF98
:100210000806002038B50020874C02460146082316
:1002200000F0C2FE22682368834D9B1AB3F5FA7F63
:10023000F9D3012000211722A22300F0B5FE0120EE
:10024000AA211722A22300F0AFFE022000211F22C4
:100250003E2300F0A9FE032000211722702300F0A6
:10026000A3FE042000211F223F2300F09DFE002159
:100270000A460520322300F097FE062000210722BF
:10028000CE2300F091FE072000210822022300F077
:100290008BFE082000210F229E2300F085FE0920FE
:1002A00000210722D02300F07FFE0A2000210F2228
:1002B0009F2300F079FE0B2000210F22D22300F0B3
:1002C00073FE0C20002117226E2300F06DFE00212A
:1002D0000A460D20042300F067FE0E2000210722AD
:1002E000CF2300F061FE0F2000210722D42300F06D
:1002F0005BFE102000210F229F2300F055FE1120ED
:1003000000210F22A42300F04FFE1220002117220B
:100310006F2300F049FE132000211722742300F000
:1003200043FE142000211F223F2300F03DFE002148
:100330000A460B46152000F037FE00210A4616201B
:10034000032300F031FE172000210722D02300F004
:100350002BFE182000210722D32300F025FE1920B0
:1003600000210F22A02300F01FFE1A2000210F22DF
:10037000A32300F019FE1B2000211722702300F098
:1003800013FE1C2000211722732300F00DFE1D20F8
:1003900000211F223F2300F007FE1E20002107221C
:1003A000082300F001FE00210A460B461F2000F042
:1003B000FBFD00210A460B46202000F0F5FD002140
:1003C0000A462120FD2300F0EFFD202213462220C3
:1003D000012100F0E9FD232002210122002300F089
:1003E000E3FD00210A460B46242000F0DDFD00213C
:1003F0000A460B46252000F0D7FD00210A460B4691
:10040000262000F0D1FD00210A460B46272000F0EF
:10041000CBFD00210A460B46282000F0C5FD002137
:100420000A460B46292000F0BFFD2A6823689B1A64
:10043000632BFBD938BD00BF080600202DE9F04F23
:100440009FB001F027FA9848012100F0C1FD974CB8
:10045000032007210522012301F030F88023052223
:10046000C4F8803001200C21002301F027F84FF45C
:100470008053A3638E48012100F0AAFD01200146AC
:10048000024600F0EBFB8B4800F03AFE8A4BA3FBE0
:1004900000129209013AB2F1807F80F0CE80874B42
:1004A000874CE02500200721864E5A6084F82350AF
:1004B0009860196033683268824DD21AB2F5FA7FBB
:1004C000F9D301242246022004210023009400F0E5
:1004D000B1FF01F057F8224602200421002300F06A
:1004E000EDFF002213460220052100F0E7FF002265
:1004F000134602200C2100F0E1FF002213460220E7
:100500000D2100F0DBFF0022134620460B2100F0F6
:10051000D5FF002213460220062100F0CFFF05215F
:100520000A460023032000F0C9FF604B2022DA674F
:100530002B683268634CD21AC72AFAD95B4B8022E7
:10054000DA67032001230621002200F0B7FF2368A9
:100550003268D21AC72AFBD9FFF75CFE5A4A112328
:1005600000925A485A4A4FF4807100F089FC0420E6
:10057000584901F015F8584B0024202283F80B430A
:1005800083F8092383F80123FFF726FE534B40F23B
:10059000C5321A605248534BA346043B0438DFF877
:1005A00058810494059303F5C875079000F5C87445
:1005B0005F464D4ADFF844C113684FF0010ACCF89A
:1005C00000A0DFF824C103EB0A0ECCF800E0DFF84E
:1005D0002CE1DFF81CC14FF00009CEF80090DFF8E5
:1005E00014E1CCF80090DFF818C1484649464A4665
:1005F0005346CEF80090CCF8009000F0D5FC494668
:100600004A464B462E2000F0CFFC484649464A4613
:10061000534600F0C9FC49464A464B462F2000F09D
:10062000C3FCDFF8A4E0314B9EF805101B6830488E
:100630000393304A734609B9FEE7FEE7DFF88CE022
:1006400083F805909EF805C093F806E0CDF840C009
:100650001E49BEF1000FEFD091F806E093F807A015
:1006600083F80690CDF844E0BAF1000FE4D04FEAE9
:100670000C4CC0F800C0D0F800C083F807904CEADA
:100680000E2EC0F800E0D0F800A091F807E093F833
:100690000DC04AEA0E0AC0F800A0CDF848E0BCF14F
:1006A000000F2FD1FEE700BF006202000060004093
:1006B0000032020020000400D34D621010E000E080
:1006C00000ED00E0080600201C0100202C0900209D
:1006D00000000020C901000000E100E00800002047
:1006E0000C0600209C070020C4000020AC00002065
:1006F000B4000020B000002040090020A400002029
:100700003001002091F80DE0987B83F80D90CDF832
:1007100040E00028C6D0887B93F80FC00290039871
:1007200083F80E9000F1060A02981190BCF1000FB8
:10073000B8D04FEA0E4EC2F800E0D2F800E0C97B14
:100740004EEA002EC2F800E0D2F800E0DFF878C3ED
:100750004EEA010EC2F800E012685CF8270003922E
:10076000CB4A83F80F90D2F800E0CA4B7045C3F82B
:1007700000A012914FEA870300F03882C64A116840
:10078000814200F02082C5480399021DD150059096
:100790000246002152F8040FAA420144FAD1DFF8C0
:1007A0002CC3DFF82CE38CFB01C2C917C1EB62122A
:1007B000BB48BC49DFF81CC3CEF80020D0F800E0ED
:1007C000CA58DCF80000824200F0ED81DFF808C36F
:1007D000DCF80000824200F01B82B348011D41F8A2
:1007E00003E007900246002152F8040FA2420144A0
:1007F000FAD1DFF8D8C2DFF8D0E28CFB01C2C9170A
:10080000DFF8D8C2C1EB6211DEF80000AEF10402DD
:10081000CCF8001052F8041F884228BF0846AA42AC
:10082000F8D1DFF880E2DFF870C2DEF80010AEF138
:100830000402CCF8000052F8040F814228BF0146A0
:100840009442F8D1DFF890E29548CEF800100168A4
:100850004FF47A72DFF880C202FB01FEDCF8001070
:10086000DFF87CC2BEFBF1F1DCF8000002FB00F017
:1008700002FB01F28849D1F800E08C49B0FBFEF0A0
:10088000B2FBF0FEA1FB0E2E4FEADE0E48F827E089
:10089000874A791E002F00F0828152F8212072448D
:1008A000B91E54BF58F82110D8F88411DFF834C2AB
:1008B0000A44F91E54BF58F82110D8F88011ACF141
:1008C00004000A44391F54BF58F82110D8F87C118D
:1008D0000A44791F54BF58F82110D8F878110A44F7
:1008E000B91F54BF58F82110D8F874110A44F91FE1
:1008F00054BF58F82110D8F870110A44B7F1080114
:1009000054BF58F82110D8F86C110A44B7F1090106
:1009100054BF58F82110D8F868110A4402EB82023B
:1009200052004CF82720ACF10802C158D0585CF8AE
:1009300003200B1A002BC1EB020142DB002940DA35
:100940000DF1780C0CEB8B03BBF1010F43F8282C55
:1009500043F81C7C00F06D81BBF1020F0CBF00203E
:1009600001200CBF012302230DF1780C0CEB830155
:1009700051F8281C8A420ED20CEB800050F8282C2B
:10098000914208D90CEB830353F81C3C002B0693CF
:10099000BCBF64330693BBF1020F00F04D810BF135
:1009A000010BDDF810C0069B42486146632940F800
:1009B0002C3000F3EF80DDF810C00CF1010CCDF805
:1009C00010C03D483C490368632F03F101033B48D5
:1009D0000B60D4BF013700274FF00E0C4FF480415D
:1009E000012201610992099B952B05D8099B0133CE
:1009F0000993099B952BF9D941610892089B952B86
:100A000005D8089B01330893089B952BF9D9BCF1B5
:100A1000010CE6D16FF42F73294A7344B3F5F97FC3
:100A2000136898BFAEF52F7C2648DFF8BCE0622B38
:100A3000CEF800C040F823C040F3AA80002320492C
:100A4000DFF878E00B600A224FF480400121CEF8F5
:100A500010000B910B9B632B05D80B9B01330B9361
:100A60000B9B632BF9D9CEF814000A910A9B632BD8
:100A700005D80A9B01330A930A9B632BF9D9013AE3
:100A8000E5D1DFF868A00D484FF0070930E000BF5E
:100A900098000020AC000020C8000020980700202B
:100AA000B40000200C06002008060020CDCCCCCCE1
:100AB0004009002078040020BC00002000600040B5
:100AC000A8000020540100209C0700201F85EB5146
:100AD000B80000209C000020CC000020C0000020B6
:100AE000B0000020E4020020A000002054010020FB
:100AF0004FF4804101222CFA09F303F001034AF874
:100B0000043D33B34FF0070E01610F920F9BC72BCB
:100B100005D80F9B01330F930F9BC72BF9D9416168
:100B20000E920E9BC72B05D80E9B01330E930E9B86
:100B3000C72BF9D9BEF1010EE6D119F1FF39DAD28E
:100B40003F4A00231360326833689B1A0E2BFBD98F
:100B50002FE54FF00A0E01610D920D9B632B05D816
:100B60000D9B01330D930D9B632BF9D941610C92C1
:100B70000C9B632B05D80C9B01330C930C9B632BB4
:100B8000F9D9BEF1010EE6D119F1FF39B3D2D7E799
:100B9000013354E74FF0000CCDF810C011E7D2F844
:100BA000882172447CE6079A41F803E002F5C87C8C
:100BB000002152F8040F814238BF01466245F8D146
:100BC0002048016009E603981F49C8500599486804
:100BD00001F5C87C51F8042F904228BF10466145AA
:100BE000F8D1DFF874C0CCF80000CCE50398059983
:100BF0004CF82700484601F5C87C51F8042F904274
:100C000038BF10466145F8D1104908600398B5E532
:100C10000F48079A40F803E0096802F5C87C52F8CB
:100C2000040F814228BF01466245F8D1094A11608C
:100C3000D3E50220002397E64FF0000BB1E600BF9A
:100C4000A40000209C0000209C07002098000020A9
:100C50000C060020CC000020C80000202DE9F04147
:100C600005460E4680B301282CD1824CDFF80CC219
:100C700033024FF4C0684FF44067002043F00F0385
:100C80000D21C4F81480C4F800C0E760E06461601E
:100C90006365DAB11523E3602368012D43F48033E3
:100CA000236041F6F9734FF001084FF00407A36485
:100CB00017D01ED3022D1AD1002E56D0012E3AD0B5
:100CC000BDE8F081BDE8F0816B4CCFE70523E36020
:100CD000012D41F6F9734FF004084FF00107A364AA
:100CE000E7D1002E75D0012E59D0BDE8F081BDE8C6
:100CF000F081012E00F0A380C0F08780022E40F02A
:100D0000828030463A460B21002300F0D7FB304664
:100D100042460A21002300F0D1FB30463A46082122
:100D2000002300F0CBFB30463A4609210023BDE802
:100D3000F04100F0C3BB30463A460321002300F0E7
:100D4000BDFB304642460421002300F0B7FB30468D
:100D50003A460621002300F0B1FB30463A46052111
:100D60000023BDE8F04100F0A9BB284629463A46D9
:100D7000334600F0A3FB284642463346032100F0E9
:100D80009DFB28463A463346052100F097FB28464E
:100D90003A4633460421BDE8F04100F08FBB002104
:100DA0000B463A46032000F089FB314642460320B9
:100DB000002300F083FB032001463A46002300F0A5
:100DC0007DFB3A46032002210023BDE8F04100F0FC
:100DD00075BB31463A463346022000F06FFB42466F
:100DE00029463346022000F069FB28463A4633463E
:100DF000082100F063FB28463A4633460721BDE848
:100E0000F04100F05BBBBDE8F0813A4604200A21C6
:100E1000002300F053FB424604200B21002300F086
:100E20004DFB3A4604200D21002300F047FB3A46D3
:100E300004200C210023BDE8F04100F03FBB3A46FE
:100E400004200721002300F039FB4246042006213C
:100E5000002300F033FB042001463A46002300F053
:100E60002DFB3A46042005210023BDE8F04100F0A7
:100E700025BB00BF00C4004000C0004001040010BA
:100E8000F0B40D4B0D4C0E4F0E4DDFF840C04FF43B
:100E90000062002639602E600499CCF80000DA6008
:100EA000C4F880212260D86C074A40F00400D8645E
:100EB000F0BC1160704700BF00C4004000E100E0DA
:100EC000D80A002030010020E80A0020D40A0020BF
:100ED0001B4B30B41A6801321A6072B6194B1A49AA
:100EE0001A68541C1CBF01321A600869000606D536
:100EF000164C1748CD69216804688C4209DB1549F6
:100F0000086801300860013A1A6002B962B630BC64
:100F10007047114902680C681049A55402680968B5
:100F200001320260026801200A440A4902F8010CF9
:100F300008681A6801300860002AE4D130BC7047A4
:100F4000D4000020D800002000C40040D80A0020AF
:100F500030010020D0000020D40A0020E80A002040
:100F60000D4B30B41A6952060ED50C48016889B190
:100F70000B4A0C4C1568495D5963116823680131AF
:100F8000116012689A4201D030BC704700230360A0
:100F900030BC70475963F7E700C40040EC0A0020FA
:100FA000F00A0020E00A002070B4074E3469064DB4
:100FB0006406FBD56863696328466A636B630369EB
:100FC0009B06FCD570BC704700C40040FEE700BF24
:100FD000C0F30323013B30B4052B25D8DFE803F031
:100FE0001B171F21031D134A1024134DC0F3043097
:100FF0006B6DDB0704D530BC024492001160704772
:101000002B6D1C42F7D02B6D1C42F9D1F3E70B4A34
:10101000C0F30430EFE70A4AFAE70A4AF8E70A4A57
:10102000F6E70A4A0124E0E7094840F23E4130BCB5
:10103000FFF7CCBF0003E41000800C402002E41056
:101040004000E410C003E4100002E410C002E41009
:10105000001A000000F00F00013808B503283ED840
:10106000DFE800F02B1C0D02234B1B6813F08053AC
:1010700033D0B3F1805F0CBF0820012008BD1E4AA9
:10108000936A03F00C03082B32D00C2B32D0042BC4
:101090002CD0936ADB020ED5092008BD164B986A46
:1010A00000F00300022819D0032823D001281DD006
:1010B0009B6ADA03F0D4012008BD0F4BDB6A03F40E
:1010C0007053B3F5805F11D0B3F5005F10D0B3F566
:1010D000006F0CBF0420052008BD072008BD07488D
:1010E00040F28751FFF772FF002008BD032008BDC2
:1010F000022008BD062008BD00800C40001A000038
:1011000000F47810B0F5402F08B500F0078115D92C
:10111000B0F5901F00F0DA8040F28B80B0F5C01F70
:1011200031D0B0F5D01F6DD0B0F5A01F51D0B84868
:101130004FF49D61FFF74AFF002008BDB0F5802FF6
:1011400000F0E88040F29480B0F5002F29D0B0F58F
:10115000202F00F0CA80B0F5C02FE8D1AD4B9B6ABC
:1011600003F00303022B00F01981032B00F0FA8037
:10117000012B00F01781A74B9B6A180CDDD0BDE84E
:10118000084000F07DBBA448FFF764FF072839D072
:1011900008287AD09E484FF4CA71FFF717FF002045
:1011A00008BD9C4A936A03F00303022B00F01381ED
:1011B000032B00F0E380012B00F0F880936A180CF9
:1011C00001D000F05DFB934B9B6EC3F30313D8403B
:1011D00008BD904B9B6AC3F38103022B00F0E980AA
:1011E000032B00F0C780012B00F0F280894B9B6A33
:1011F000180D01D000F044FB864B1B6F03F0030376
:10120000D84008BD834B5B6903F4E063B3F5007F0E
:1012100000F0F28040F29E80B3F5C06F00F0F080E5
:10122000B3F5E06F00F0EA80B3F5407F84D17B48EE
:1012300008BDB0F5602F2CD0B0F5801F7FF477AFDC
:10124000744A936A03F00303022B00F0BB80032B64
:1012500000F09880012B00F0C780936A1B0C40F0CF
:10126000D18000206B4B9B6E03F00303D84008BD78
:1012700058B1B0F5003F7FF45AAF00F09BFA654BD0
:101280009B6803F00F03D84008BDBDE8084000F09C
:1012900091BA604A936A03F00303022B00F09E8028
:1012A000032B73D0012B00F08780936A180C01D0B8
:1012B00000F0E6FA574B9A6EDB6FC2F30132D04072
:1012C00003F007030133B0FBF3F008BD514A936A02
:1012D000C3F38103022B61D0032B43D0012B61D0D8
:1012E000936A180D3FF429AF49E74A4A936A03F01D
:1012F0000303022B75D0032B4CD0012B77D0936ABC
:101300001B0C40F082800020424B9B6EC3F30323F2
:10131000D84008BDBDE8084000F0E2B93D4A936AF4
:1013200003F00303022B50D0032B1FD0012B46D018
:10133000936A180C01D000F0A3FA364B10229B6E72
:10134000B2FA82F2D2B2C2F11F02C3F301331344E4
:10135000D84008BD002B4DD0B3F5807F7FF4ECAEB4
:101360002F4808BD00F0BCF9400808BD00F0B8F9EE
:101370004008E2E700F0B4F940083DE700F0B0F9BA
:10138000400820E700F0ACF940086BE700F0A8F94E
:1013900040088FE700F0A4F94008B5E7BDE8084031
:1013A00000F072BABDE8084000F066BA00F064FAD6
:1013B00009E700F069FA1FE700F05EFA7AE700F04B
:1013C0005BFABAE700F060FA4CE700F05DFAB4E7C8
:1013D00000F052FA10E700F057FAF4E600F054FA81
:1013E00068E700F051FA8FE700F046FA3AE700F0BC
:1013F00043FA89E70B4808BD0B4808BD0B4808BDF8
:101400000B4808BD00F03CFA2CE700F039FA7BE706
:10141000001A000000800C400400180040420F0039
:10142000C0D8A700809FD500C0CF6A00406F4001A0
:10143000003FAB012DE9F041052805460C46164654
:1014400098469DF8187020D80F291ED8072C22D94D
:10145000A4F108039B000F229A409D40144BD3F83F
:10146000041121EA02021543C3F804510122A240EB
:1014700010490F4B214489000E60C1F88080C3F8E9
:101480001C21C1F80071BDE8F0810B489721FFF7DE
:101490009DFD072CDCD8A3000F229A409D40044BF1
:1014A000D3F8001121EA02021543C3F80051DDE729
:1014B0000060004040088310501A00000528F8B56D
:1014C00004460D4616461F4622D80F2920D82EBBAB
:1014D000E200072D2FD8AB004FF00F0C0CFA03FCE5
:1014E00006FA03F31119890001F1804101F5C041A9
:1014F000486820EA0C0003434B6046B9012303FA15
:1015000005F522449FBB1D4B920013445D60F8BD5E
:101510001B48CC21FFF75AFD002ED9D00121A9404C
:10152000E200F7B113199B0003F1804303F5C043B8
:10153000072D1961CFD905F18043083B9B004FF07F
:101540000F0C0CFA03FC06FA03F31119890001F1E0
:10155000804101F5C041886820EA0C0003438B609C
:10156000CBE71019054B800003445960B1E79200A6
:1015700002F1804202F5C0421561F8BD10600040E2
:10158000501A0000054B4FF400710222C3F880117D
:101590001960C3F880211A60704700BF00E100E0C5
:1015A00010B472B60A4A0B4C1368B3F1FF3F06D071
:1015B00044F8201003B962B65DF8044B70476FF031
:1015C000010344F8201013605DF8044B704700BF1E
:1015D000D8000020DC0000200F4B70B5D3F81011AC
:1015E000D3F8142145F255540A401440C3F81C4165
:1015F0008CB10A4E012594FAA4F3B3FA83F3DBB25B
:1016000005FA03F2184656F8233024EA020403B11F
:101610009847002CEFD170BD00600040DC00002036
:101620000F4B70B5D3F81011D3F814214AF6AA2441
:101630000A401440C3F81C418CB10A4E012594FAAB
:10164000A4F3B3FA83F3DBB205FA03F2184656F8B3
:10165000233024EA020403B19847002CEFD170BD77
:1016600000600040DC000020074880470749084A26
:10167000084B9B1A40F30580043BC858D0503FF7F5
:10168000FBAF05480047000075180000B41A0000C1
:10169000000000207C00002055010000FEE7FEE76E
:1016A000FEE7FEE7FEE7FEE7FEE7FEE7FEE7FEE712
:1016B000FEE7FEE7FEE7FEE7FEE7FEE7FEE7FEE702
:1016C000FEE7FEE7FEE7FEE7FEE7FEE7FEE7FEE7F2
:1016D000FEE7FEE7FEE7FEE7FEE7FEE7FEE700BF08
:1016E000274AD36A03F47053B3F5805F25D0B3F56E
:1016F000005F1FD0B3F5006F11D0D36803F4E0632F
:10170000B3F5007F3AD01BD9B3F5806F34D0B3F571
:10171000A06F2FD0B3F5407F20D0002101E0194BFE
:101720001968174A184B506800F00F0021FA00F0B2
:1017300018607047154B1968F3E74FF40041F0E764
:1017400073B1B3F5807FE8D1114B124AD96C124BBB
:10175000B1F1985F34BF11461946E2E70F49E0E75F
:101760000B4B0F4AD96C0F4BB1F1985F34BF114648
:101770001946D6E70C49D4E70C49D2E70C49D0E723
:1017800000800C4010000020F40A00200C00002013
:10179000B081E00FC0CF6A0040B56400809FD500E3
:1017A00040420F00804F1200003FAB01406F4001EC
:1017B000C0D8A700234AD36A03F47053B3F5805FFF
:1017C0001DD0B3F5005F17D0B3F5006F11D0D3680B
:1017D00003F4E063B3F5007F32D013D9B3F5806F23
:1017E0002CD0B3F5A06F27D0B3F5407F18D00020E0
:1017F0007047154B18687047144B186870474FF4C2
:101800000040704773B1B3F5807FF0D1104B114A9F
:10181000D86C114BB0F1985F34BF10461846704732
:101820000E4870470A4B0E4AD86C0E4BB0F1985FC9
:1018300034BF1046184670470B4870470B48704736
:101840000B48704700800C40100000200C00002066
:10185000B081E00FC0CF6A0040B56400809FD50022
:1018600040420F00804F1200003FAB01406F40012B
:10187000C0D8A700704700BF4FF40040704700BFBA
:101880004FF47A70704700BF014B1868704700BF73
:101890000C0000204FF07E6318682DE9F00310B9AA
:1018A000BDE8F00370472649264B4A6C102042F0F1
:1018B00040024A64D3F820410A4644F00404C3F8C5
:1018C0002041D3F8204124F4407444F48074C3F8D8
:1018D00020411C6D24F070441C651C6D44F0804454
:1018E0001C650862D36A9906FCD5174BDA68D201E9
:1018F00021D4D868154ADFF86080DFF86090144D75
:10190000144C40F0807002274FF480764FF0604115
:101910004FF00F0CD860C8F800900120C2F810C03A
:10192000C2F8F070C2F80463C1F8B05FC1F8804E2D
:10193000BDE8F00370470120BDE8F003704700BF29
:1019400000800C4000600040F0ED00E0000004E08A
:1019500055CEACC509000100001000E0FF130140A6
:1019600008B5074B044613B10021AFF30080054BC7
:101970001868836A03B19847204600F033F800BF27
:1019800000000000A41A000070B50E4B0E4D00249C
:10199000ED1AAD101E46AC4204D056F824209047F4
:1019A0000134F8E700F020F8084D094B0024ED1A47
:1019B000AD101E46AC4204D056F8242090470134A6
:1019C000F8E770BD7400002074000020780000204B
:1019D0007400002002440346934202D003F8011B26
:1019E000FAE77047FEE700BFF8B500BFF8BC08BCD7
:1019F0009E467047F8B500BFF8BC08BC9E467047CD
:101A0000433A2F53696C69636F6E4C6162732F5355
:101A1000696D706C696369747953747564696F2F4B
:101A200076322F646576656C6F7065722F73646BA8
:101A3000732F65666D33322F76322F656D6C696258
:101A40002F7372632F656D5F636D752E63000000E9
:101A5000433A2F53696C69636F6E4C6162732F5305
:101A6000696D706C696369747953747564696F2FFB
:101A700076322F646576656C6F7065722F73646B58
:101A8000732F65666D33322F76322F656D6C696208
:101A90002F7372632F656D5F6770696F2E6300002F
:0C1AA000430000001400002000000000C3
:081AAC00A8E6FF7F0100000025
:101AB4005445535400000000010000000080000061
:101AC4000048E801000000000000000000000000E1
:101AD4000000000000000000000000000000000002
:101AE40000000000A01A0000000000000000000038
:101AF40000000000000000000000000000000000E2
:101B040000000000000000000000000000000000D1
:101B140000000000000000000000000000000000C1
:0C1B24000000000025010000010100008D
:04000003000016697A
:00000001FF
