:100000000010002085150000BB150000BD15000084
:10001000BF150000C1150000C3150000B915000090
:10002000B9150000B9150000B9150000C51500008C
:10003000C7150000B9150000C91500000502000031
:10004000CD150000F5140000D1150000D3150000F7
:10005000D5150000D7150000D9150000DB150000EC
:10006000DD1500003D150000E1150000ED0D00005C
:100070007D0E0000E7150000E9150000EB150000FB
:10008000ED150000EF150000F1150000F31500005C
:10009000F5150000F7150000F9150000000000003C
:1000A0000000000000000000000000000000000050
:1000B0000000000000000000000000000000000040
:1000C0000000000000000000000000000000000030
:1000D0000000000000000000000000000000000020
:1000E0000000000000000000000000000000000010
:1000F0000000000000000000000000000000000000
:1001000010B5054C237833B9044B13B10448AFF351
:1001100000800123237010BD7C000020000000003F
:10012000C419000008B5064B1BB106480649AFF3D9
:1001300000800648036813B1054B03B1984708BD1A
:1001400000000000C4190000800000207C00002096
:1001500000000000154B002B08BF134B9D46A3F574
:10016000803A00218B460F461348144A121A01F0B8
:10017000BFFB0F4B002B00D098470E4B002B00D03D
:1001800098470020002104000D000D48002802D0EF
:100190000C48AFF3008001F085FB2000290000F03F
:1001A0004DF901F06BFB00BF0000080000100020BB
:1001B00000000000000000007C000020F80A002081
:1001C0000000000000000000042802D1014B0122C1
:1001D0001A607047A400002008B50848012100F00B
:1001E00085FE0748012100F081FE002003460E2114
:1001F000042201F0F1F8002008BD00BF10810200C8
:1002000000620200024B1A6801321A60704700BF98
:100210000806002038B50020874C02460146082316
:1002200000F050FE22682368834D9B1AB3F5FA7FD5
:10023000F9D3012000211722A22300F043FE012060
:10024000AA211722A22300F03DFE022000211F2236
:100250003E2300F037FE032000211722702300F018
:1002600031FE042000211F223F2300F02BFE00213D
:100270000A460520322300F025FE06200021072231
:10028000CE2300F01FFE072000210822022300F0E9
:1002900019FE082000210F229E2300F013FE0920E2
:1002A00000210722D02300F00DFE0A2000210F229A
:1002B0009F2300F007FE0B2000210F22D22300F025
:1002C00001FE0C20002117226E2300F0FBFD00210F
:1002D0000A460D20042300F0F5FD0E200021072220
:1002E000CF2300F0EFFD0F2000210722D42300F0E0
:1002F000E9FD102000210F229F2300F0E3FD1120D3
:1003000000210F22A42300F0DDFD1220002117227E
:100310006F2300F0D7FD132000211722742300F073
:10032000D1FD142000211F223F2300F0CBFD00212E
:100330000A460B46152000F0C5FD00210A4616208E
:10034000032300F0BFFD172000210722D02300F077
:10035000B9FD182000210722D32300F0B3FD192096
:1003600000210F22A02300F0ADFD1A2000210F2252
:10037000A32300F0A7FD1B2000211722702300F00B
:10038000A1FD1C2000211722732300F09BFD1D20DE
:1003900000211F223F2300F095FD1E20002107228F
:1003A000082300F08FFD00210A460B461F2000F0B5
:1003B00089FD00210A460B46202000F083FD002124
:1003C0000A462120FD2300F07DFD20221346222035
:1003D000012100F077FD232002210122002300F0FB
:1003E00071FD00210A460B46242000F06BFD002120
:1003F0000A460B46252000F065FD00210A460B4603
:10040000262000F05FFD00210A460B46272000F061
:1004100059FD00210A460B46282000F053FD00211B
:100420000A460B46292000F04DFD2A6823689B1AD6
:10043000632BFBD938BD00BF080600202DE9F04F23
:1004400093B001F0B5F99748012100F04FFD964CAB
:10045000032007210522012300F0BEFF802305228F
:10046000C4F8803001200C21002300F0B5FF4FF4C8
:100470008053A3638D48012100F038FD012001461F
:10048000024600F079FB8A4800F0C8FD894BA3FBC7
:1004900000129209013AB2F1807F80F0CF80864B42
:1004A000864CE02500200721854E5A6084F82350B1
:1004B0009860196033683268814DD21AB2F5FA7FBC
:1004C000F9D301242246022004210023009400F0E5
:1004D0003FFF00F0E5FF224602200421002300F048
:1004E0007BFF002213460220052100F075FF002249
:1004F000134602200C2100F06FFF00221346022059
:100500000D2100F069FF0022134620460B2100F068
:1005100063FF002213460220062100F05DFF052143
:100520000A460023032000F057FF5F4B2022DA67C2
:100530002B683268624CD21AC72AFAD95A4B8022E9
:10054000DA67032001230621002200F045FF23681B
:100550003268D21AC72AFBD9FFF75CFE594A112329
:1005600000925948594A4FF4807100F017FC04205A
:10057000574900F0A3FFDFF874B1564B2022002446
:1005800083F80B43ABF1040783F8092383F80123B5
:10059000FFF722FE0397504F504B043F40F2C53205
:1005A000DFF84C81A2461A600BF5C675049707F573
:1005B000C874DFF840E1DFF840C1DEF800304FF0EA
:1005C0000109CCF80090DFF82CC103EB090ECCF840
:1005D00000E0DFF824E1DFF80CC10027CEF800705E
:1005E000DFF804E1CCF80070DFF810C13846394676
:1005F0003A464B46CEF80070CCF8007000F062FC32
:1006000039463A463B462E2000F05CFC38463946D7
:100610003A464B4600F056FC39463A463B462F20B8
:1006200000F050FCDFF89CE02D4B9EF805101B6895
:100630002C4805932C4A734609B9FEE7FEE7DFF81C
:1006400088E05F719EF805C093F806E0CDF838C0E9
:100650001D49BEF1000FF0D091F806E093F8079025
:100660009F71CDF83CE0B9F1000FE6D04FEA0C4C99
:10067000C0F800C0D0F800C0DF714CEA0E2EC0F800
:1006800000E0D0F8009091F807E093F80DC049EA37
:100690000E09C0F80090CDF840E0BCF1000F2FD15A
:1006A000FEE700BF0062020000600040003202006E
:1006B00020000400D34D621010E000E000ED00E0E7
:1006C000080600201C0100202C090020000000204A
:1006D000C901000000E100E00C0600200800002035
:1006E000AC000020B4000020B00000209C070020D7
:1006F00040090020C4000020A40000203001002098
:1007000091F80DE0987B5F73CDF838E00028C7D0F2
:10071000887B93F80FC0029005989F7300F106093B
:1007200002980F90BCF1000FBAD04FEA0E4EC2F8FB
:1007300000E0D2F800E0C97B4EEA002EC2F800E0EB
:10074000D2F800E0DFF82CC34EEA010EC2F800E058
:100750005BF82A001268DCF800E01091B54970459A
:10076000C1F80090DF734FEA8A0100F0D881B24FE0
:100770003B68834200F0C081B04F4BF801200397E3
:100780003B46002253F8040FAB420244FAD1DFF893
:10079000BCC2DFF8E4E28CFB02C3D217C2EB6313E6
:1007A000A748A84ADFF8D4C2CEF8003007685358EB
:1007B000DCF80000834200F08E81DFF894C2DCF8A0
:1007C0000000834200F0BB819F4A131D04925F50DA
:1007D0001346002253F8041FA3420A44FAD19B4F48
:1007E000DFF89CC287FB0273D217C2EB6312DBF8FF
:1007F0000010924BCCF8002053F8042F914228BFF0
:100800001146AB42F8D1DFF83CE28B48DEF800201D
:10081000AEF10403016053F8041F8A4228BF0A4660
:100820009C42F8D18A494FF47A730A60844A884F0F
:100830001168DFF850C203FB01F13A68DCF80000F0
:10084000B1FBF2F203FB00F0DFF8ECE103FB02F393
:10085000DEF800107F4AB0FBF1F1B3FBF1F7A2FB29
:100860000707FF0848F82A707B4B0AF1FF32BAF1FC
:10087000000F00F02C8153F822303B44BAF1020201
:1008800054BF58F82220D8F8882174491344BAF18B
:10089000030254BF58F82220D8F88421704813442A
:1008A000BAF1040254BF58F82220D8F880214FF042
:1008B0000E0E1344BAF1050254BF58F82220D8F89E
:1008C0007C211344BAF1060254BF58F82220D8F80C
:1008D00078211344BAF1070254BF58F82220D8F8FF
:1008E00074211344BAF1080254BF58F82220D8F8F2
:1008F00070211344BAF1090254BF58F82220D8F8E5
:100900006C21BAF1630F134403EB8303554A4FEA9A
:10091000430341F82A301368D8BF0AF1010A03F1F2
:1009200001031360C8BF4FF0000A4FF48041012259
:1009300001610792079B952B05D8079B013307930D
:10094000079B952BF9D941610692069B952B05D8FB
:10095000069B01330693069B952BF9D9BEF1010E38
:10096000E6D16FF42F73FB18B3F5F97F98BFA7F5A5
:100970002F7E3D4FDFF810C13B683C48622BCCF81E
:1009800000E040F823E040F3A08000233649344FD4
:100990000B600A224FF48040012138610991099BC4
:1009A000632B05D8099B01330993099B632BF9D964
:1009B00078610891089B632B05D8089B0133089345
:1009C000089B632BF9D9013AE7D1DFF8C09024489E
:1009D0004FF0070C4FF4804101222EFA0CF303F084
:1009E000010349F8043D002B52D0072701610D9205
:1009F0000D9BC72B05D80D9B01330D930D9BC72B6A
:100A0000F9D941610C920C9BC72B05D80C9B013383
:100A10000C930C9BC72BF9D9013FE7D11CF1FF3C8C
:100A2000DBD2134A00231360326833689B1A0E2B03
:100A3000FBD9BEE5AC000020C800002098070020CC
:100A4000B40000200C060020080600201F85EB5192
:100A5000CC000020CDCCCCCC40090020E40200200A
:100A600000600040BC000020A800002054010020CD
:100A7000A400002098000020B80000209C00002066
:100A8000C0000020B0000020A00000205401002081
:100A90000A2701610B920B9B632B05D80B9B01333B
:100AA0000B930B9B632BF9D941610A920A9B632B31
:100AB00005D80A9B01330A930A9B632BF9D9013F9E
:100AC000E7D11CF1FF3C88D2ABE701335EE7D3F8F6
:100AD0008C313B44D2E6049B575003F5C87E00227C
:100AE00053F8040F824238BF02467345F8D1DFF84D
:100AF0007CE0CEF8002067E64BF80120039BDBF892
:100B0000000003F5C87E53F8047FB84228BF38467A
:100B10007345F8D1DFF858C0CCF800002CE6039BF1
:100B20004BF82A2003F5C87E53F8040F874238BFDC
:100B300007467345F8D10B4B10461F6017E6DFF8E8
:100B400034E0049B4EF80170126803F5C87E53F838
:100B5000040F824228BF02467345F8D10248026062
:100B600032E600BF98000020CC0000209C0000204E
:100B7000C80000200C0600202DE9F04105460E4675
:100B800080B301282CD1824CDFF80CC233024FF421
:100B9000C0684FF44067002043F00F030D21C4F8F4
:100BA0001480C4F800C0E760E06461606365DAB196
:100BB0001523E3602368012D43F48033236041F65D
:100BC000F9734FF001084FF00407A36417D01ED348
:100BD000022D1AD1002E56D0012E3AD0BDE8F08158
:100BE000BDE8F0816B4CCFE70523E360012D41F6B2
:100BF000F9734FF004084FF00107A364E7D1002E0A
:100C000075D0012E59D0BDE8F081BDE8F081012EEC
:100C100000F0A380C0F08780022E40F08280304632
:100C20003A460B21002300F0D7FB304642460A210A
:100C3000002300F0D1FB30463A460821002300F0A3
:100C4000CBFB30463A4609210023BDE8F04100F0D5
:100C5000C3BB30463A460321002300F0BDFB3046BB
:100C600042460421002300F0B7FB30463A460621F5
:100C7000002300F0B1FB30463A4605210023BDE8D1
:100C8000F04100F0A9BB284629463A46334600F019
:100C9000A3FB284642463346032100F09DFB28462D
:100CA0003A463346052100F097FB28463A4633463C
:100CB0000421BDE8F04100F08FBB00210B463A460D
:100CC000032000F089FB314642460320002300F058
:100CD00083FB032001463A46002300F07DFB3A46A1
:100CE000032002210023BDE8F04100F075BB31462E
:100CF0003A463346022000F06FFB4246294633460F
:100D0000022000F069FB28463A463346082100F0ED
:100D100063FB28463A4633460721BDE8F04100F020
:100D20005BBBBDE8F0813A4604200A21002300F0B5
:100D300053FB424604200B21002300F04DFB3A46B2
:100D400004200D21002300F047FB3A4604200C212B
:100D50000023BDE8F04100F03FBB3A4604200721E4
:100D6000002300F039FB424604200621002300F056
:100D700033FB042001463A46002300F02DFB3A469F
:100D8000042005210023BDE8F04100F025BB00BF91
:100D900000C4004000C0004001040010F0B40D4B3E
:100DA0000D4C0E4F0E4DDFF840C04FF40062002690
:100DB00039602E600499CCF80000DA60C4F8802114
:100DC0002260D86C074A40F00400D864F0BC11607F
:100DD000704700BF00C4004000E100E0D80A0020D6
:100DE00030010020E80A0020D40A00201B4B30B458
:100DF0001A6801321A6072B6194B1A491A68541CE3
:100E00001CBF01321A600869000606D5164C174847
:100E1000CD69216804688C4209DB154908680130F6
:100E20000860013A1A6002B962B630BC70471149D5
:100E300002680C681049A554026809680132026012
:100E4000026801200A440A4902F8010C08681A687D
:100E500001300860002AE4D130BC7047D400002083
:100E6000D800002000C40040D80A00203001002033
:100E7000D0000020D40A0020E80A00200D4B30B436
:100E80001A6952060ED50C48016889B10B4A0C4C00
:100E90001568495D59631168236801311160126852
:100EA0009A4201D030BC70470023036030BC7047C9
:100EB0005963F7E700C40040EC0A0020F00A002064
:100EC000E00A002070B4074E3469064D6406FBD575
:100ED0006863696328466A636B6303699B06FCD594
:100EE00070BC704700C40040FEE700BFC0F303239E
:100EF000013B30B4052B25D8DFE803F01B171F2179
:100F0000031D134A1024134DC0F304306B6DDB072F
:100F100004D530BC02449200116070472B6D1C4216
:100F2000F7D02B6D1C42F9D1F3E70B4AC0F3043024
:100F3000EFE70A4AFAE70A4AF8E70A4AF6E70A4AEE
:100F40000124E0E7094840F23E4130BCFFF7CCBF46
:100F50000003E41000800C402002E4104000E41084
:100F6000C003E4100002E410C002E4101C190000E9
:100F700000F00F00013808B503283ED8DFE800F084
:100F80002B1C0D02234B1B6813F0805333D0B3F19D
:100F9000805F0CBF0820012008BD1E4A936A03F041
:100FA0000C03082B32D00C2B32D0042B2CD0936A9C
:100FB000DB020ED5092008BD164B986A00F003002D
:100FC000022819D0032823D001281DD09B6ADA03F8
:100FD000F0D4012008BD0F4BDB6A03F47053B3F566
:100FE000805F11D0B3F5005F10D0B3F5006F0CBF78
:100FF0000420052008BD072008BD074840F287519E
:10100000FFF772FF002008BD032008BD022008BDC5
:10101000062008BD00800C401C19000000F4781068
:10102000B0F5402F08B500F0078115D9B0F5901F35
:1010300000F0DA8040F28B80B0F5C01F31D0B0F5FF
:10104000D01F6DD0B0F5A01F51D0B8484FF49D61AE
:10105000FFF74AFF002008BDB0F5802F00F0E880C0
:1010600040F29480B0F5002F29D0B0F5202F00F089
:10107000CA80B0F5C02FE8D1AD4B9B6A03F00303E3
:10108000022B00F01981032B00F0FA80012B00F0F5
:101090001781A74B9B6A180CDDD0BDE8084000F013
:1010A0007DBBA448FFF764FF072839D008287AD011
:1010B0009E484FF4CA71FFF717FF002008BD9C4AF5
:1010C000936A03F00303022B00F01381032B00F05B
:1010D000E380012B00F0F880936A180C01D000F037
:1010E0005DFB934B9B6EC3F30313D84008BD904B3D
:1010F0009B6AC3F38103022B00F0E980032B00F00D
:10110000C780012B00F0F280894B9B6A180D01D03B
:1011100000F044FB864B1B6F03F00303D84008BD6F
:10112000834B5B6903F4E063B3F5007F00F0F2806A
:1011300040F29E80B3F5C06F00F0F080B3F5E06F31
:1011400000F0EA80B3F5407F84D17B4808BDB0F55C
:10115000602F2CD0B0F5801F7FF477AF744A936A6C
:1011600003F00303022B00F0BB80032B00F09880F8
:10117000012B00F0C780936A1B0C40F0D180002047
:101180006B4B9B6E03F00303D84008BD58B1B0F51C
:10119000003F7FF45AAF00F09BFA654B9B6803F069
:1011A0000F03D84008BDBDE8084000F091BA604A7E
:1011B000936A03F00303022B00F09E80032B73D08D
:1011C000012B00F08780936A180C01D000F0E6FA3A
:1011D000574B9A6EDB6FC2F30132D04003F0070326
:1011E0000133B0FBF3F008BD514A936AC3F38103A6
:1011F000022B61D0032B43D0012B61D0936A180DD1
:101200003FF429AF49E74A4A936A03F00303022BEC
:1012100075D0032B4CD0012B77D0936A1B0C40F078
:1012200082800020424B9B6EC3F30323D84008BD4D
:10123000BDE8084000F0E2B93D4A936A03F00303B9
:10124000022B50D0032B1FD0012B46D0936A180CD1
:1012500001D000F0A3FA364B10229B6EB2FA82F254
:10126000D2B2C2F11F02C3F301331344D84008BD08
:10127000002B4DD0B3F5807F7FF4ECAE2F4808BD36
:1012800000F0BCF9400808BD00F0B8F94008E2E7FA
:1012900000F0B4F940083DE700F0B0F9400820E75D
:1012A00000F0ACF940086BE700F0A8F940088FE7C0
:1012B00000F0A4F94008B5E7BDE8084000F072BAB4
:1012C000BDE8084000F066BA00F064FA09E700F0F3
:1012D00069FA1FE700F05EFA7AE700F05BFABAE716
:1012E00000F060FA4CE700F05DFAB4E700F052FA63
:1012F00010E700F057FAF4E600F054FA68E700F05F
:1013000051FA8FE700F046FA3AE700F043FA89E72E
:101310000B4808BD0B4808BD0B4808BD0B4808BD6D
:1013200000F03CFA2CE700F039FA7BE71C190000CA
:1013300000800C400400180040420F00C0D8A700F5
:10134000809FD500C0CF6A00406F4001003FAB01D5
:101350002DE9F041052805460C46164698469DF8AD
:10136000187020D80F291ED8072C22D9A4F1080301
:101370009B000F229A409D40144BD3F8041121EAA0
:1013800002021543C3F804510122A24010490F4B39
:10139000214489000E60C1F88080C3F81C21C1F887
:1013A0000071BDE8F0810B489721FFF79DFD072CE8
:1013B000DCD8A3000F229A409D40044BD3F80011C3
:1013C00021EA02021543C3F80051DDE70060004046
:1013D000400883106C1900000528F8B504460D4636
:1013E00016461F4622D80F2920D82EBBE200072D13
:1013F0002FD8AB004FF00F0C0CFA03FC06FA03F3E6
:101400001119890001F1804101F5C041486820EAC5
:101410000C0003434B6046B9012303FA05F522444F
:101420009FBB1D4B920013445D60F8BD1B48CC214F
:10143000FFF75AFD002ED9D00121A940E200F7B1F3
:1014400013199B0003F1804303F5C043072D196175
:10145000CFD905F18043083B9B004FF00F0C0CFAED
:1014600003FC06FA03F31119890001F1804101F52B
:10147000C041886820EA0C0003438B60CBE7101959
:10148000054B800003445960B1E7920002F18042AD
:1014900002F5C0421561F8BD106000406C190000F3
:1014A000054B4FF400710222C3F880111960C3F894
:1014B00080211A60704700BF00E100E010B472B6EE
:1014C0000A4A0B4C1368B3F1FF3F06D044F82010D2
:1014D00003B962B65DF8044B70476FF0010344F83E
:1014E000201013605DF8044B704700BFD800002047
:1014F000DC0000200F4B70B5D3F81011D3F8142185
:1015000045F255540A401440C3F81C418CB10A4EB0
:10151000012594FAA4F3B3FA83F3DBB205FA03F2DC
:10152000184656F8233024EA020403B19847002CE9
:10153000EFD170BD00600040DC0000200F4B70B5A3
:10154000D3F81011D3F814214AF6AA240A40144003
:10155000C3F81C418CB10A4E012594FAA4F3B3FAE6
:1015600083F3DBB205FA03F2184656F8233024EA77
:10157000020403B19847002CEFD170BD0060004019
:10158000DC000020074880470749084A084B9B1A9F
:1015900040F30580043BC858D0503FF7FBAF0548E7
:1015A0000047000091170000D01900000000002043
:1015B0007C00002055010000FEE7FEE7FEE7FEE7A5
:1015C000FEE7FEE7FEE7FEE7FEE7FEE7FEE7FEE7F3
:1015D000FEE7FEE7FEE7FEE7FEE7FEE7FEE7FEE7E3
:1015E000FEE7FEE7FEE7FEE7FEE7FEE7FEE7FEE7D3
:1015F000FEE7FEE7FEE7FEE7FEE700BF274AD36A05
:1016000003F47053B3F5805F25D0B3F5005F1FD0AE
:10161000B3F5006F11D0D36803F4E063B3F5007F36
:101620003AD01BD9B3F5806F34D0B3F5A06F2FD06B
:10163000B3F5407F20D0002101E0194B1968174A0B
:10164000184B506800F00F0021FA00F01860704746
:10165000154B1968F3E74FF40041F0E773B1B3F5A8
:10166000807FE8D1114B124AD96C124BB1F1985FCF
:1016700034BF11461946E2E70F49E0E70B4B0F4A2A
:10168000D96C0F4BB1F1985F34BF11461946D6E7BC
:101690000C49D4E70C49D2E70C49D0E700800C4054
:1016A00010000020F40A00200C000020B081E00FA0
:1016B000C0CF6A0040B56400809FD50040420F0053
:1016C000804F1200003FAB01406F4001C0D8A7001F
:1016D000234AD36A03F47053B3F5805F1DD0B3F58A
:1016E000005F17D0B3F5006F11D0D36803F4E06347
:1016F000B3F5007F32D013D9B3F5806F2CD0B3F59A
:10170000A06F27D0B3F5407F18D000207047154B4D
:1017100018687047144B186870474FF400407047C2
:1017200073B1B3F5807FF0D1104B114AD86C114BD7
:10173000B0F1985F34BF1046184670470E487047A6
:101740000A4B0E4AD86C0E4BB0F1985F34BF10466E
:10175000184670470B4870470B4870470B48704756
:1017600000800C40100000200C000020B081E00F31
:10177000C0CF6A0040B56400809FD50040420F0092
:10178000804F1200003FAB01406F4001C0D8A7005E
:10179000704700BF4FF40040704700BF4FF47A70AD
:1017A000704700BF014B1868704700BF0C00002055
:1017B0004FF07E6318682DE9F00310B9BDE8F0031F
:1017C00070472649264B4A6C102042F040024A647A
:1017D000D3F820410A4644F00404C3F82041D3F86A
:1017E000204124F4407444F48074C3F820411C6DFB
:1017F00024F070441C651C6D44F080441C65086234
:10180000D36A9906FCD5174BDA68D20121D4D8687F
:10181000154ADFF86080DFF86090144D144C40F0FA
:10182000807002274FF480764FF060414FF00F0C2C
:10183000D860C8F800900120C2F810C0C2F8F0705B
:10184000C2F80463C1F8B05FC1F8804EBDE8F00390
:1018500070470120BDE8F003704700BF00800C40D6
:1018600000600040F0ED00E0000004E055CEACC5A3
:1018700009000100001000E0FF13014008B5074B0C
:10188000044613B10021AFF30080054B1868836A4A
:1018900003B19847204600F033F800BF0000000075
:1018A000C019000070B50E4B0E4D0024ED1AAD109E
:1018B0001E46AC4204D056F8242090470134F8E785
:1018C00000F020F8084D094B0024ED1AAD101E461B
:1018D000AC4204D056F8242090470134F8E770BD9C
:1018E00074000020740000207800002074000020A4
:1018F00002440346934202D003F8011BFAE7704703
:10190000FEE700BFF8B500BFF8BC08BC9E467047B4
:10191000F8B500BFF8BC08BC9E467047433A2F5349
:10192000696C69636F6E4C6162732F53696D706C83
:10193000696369747953747564696F2F76322F64A3
:101940006576656C6F7065722F73646B732F656657
:101950006D33322F76322F656D6C69622F7372632F
:101960002F656D5F636D752E63000000433A2F5342
:10197000696C69636F6E4C6162732F53696D706C33
:10198000696369747953747564696F2F76322F6453
:101990006576656C6F7065722F73646B732F656607
:1019A0006D33322F76322F656D6C69622F737263DF
:1019B0002F656D5F6770696F2E6300004300000044
:0819C0001400002000000000EB
:0819C8008CE7FF7F0100000025
:1019D0005445535400000000010000000080000046
:1019E0000048E801000000000000000000000000C6
:1019F00000000000000000000000000000000000E7
:101A000000000000BC190000000000000000000001
:101A100000000000000000000000000000000000C6
:101A200000000000000000000000000000000000B6
:101A300000000000000000000000000000000000A6
:0C1A400000000000250100000101000072
:04000003000015855F
:00000001FF
