:1000000000100020BD140000F3140000F5140000DF
:10001000F7140000F9140000FB140000F1140000B4
:10002000F1140000F1140000F1140000FD140000B0
:10003000FF140000F114000001150000050200008B
:10004000051500002D140000091500000B15000017
:100050000D1500000F15000011150000131500000C
:10006000151500007514000019150000250D00007D
:10007000B50D00001F15000021150000231500001C
:100080002515000027150000291500002B1500007C
:100090002D1500002F150000311500000000000094
:1000A0000000000000000000000000000000000050
:1000B0000000000000000000000000000000000040
:1000C0000000000000000000000000000000000030
:1000D0000000000000000000000000000000000020
:1000E0000000000000000000000000000000000010
:1000F0000000000000000000000000000000000000
:1001000010B5054C237833B9044B13B10448AFF351
:1001100000800123237010BD7C000020000000003F
:10012000FC18000008B5064B1BB106480649AFF3A2
:1001300000800648036813B1054B03B1984708BD1A
:1001400000000000FC180000800000207C0000205F
:1001500000000000154B002B08BF134B9D46A3F574
:10016000803A00218B460F461348144A121A01F0B8
:100170005BFB0F4B002B00D098470E4B002B00D0A1
:1001800098470020002104000D000D48002802D0EF
:100190000C48AFF3008001F021FB2000290000F0A3
:1001A0004DF901F007FB00BF00000800001000201F
:1001B00000000000000000007C000020F80A002081
:1001C0000000000000000000042802D1014B0122C1
:1001D0001A607047A400002008B50848012100F00B
:1001E00021FE0748012100F01DFE002003460E21DC
:1001F000042201F08DF8002008BD00BF108102002C
:1002000000620200024B1A6801321A60704700BF98
:100210000806002038B50020874C02460146082316
:1002200000F0ECFD22682368834D9B1AB3F5FA7F3A
:10023000F9D3012000211722A22300F0DFFD0120C5
:10024000AA211722A22300F0D9FD022000211F229B
:100250003E2300F0D3FD032000211722702300F07D
:10026000CDFD042000211F223F2300F0C7FD002107
:100270000A460520322300F0C1FD06200021072296
:10028000CE2300F0BBFD072000210822022300F04E
:10029000B5FD082000210F229E2300F0AFFD0920AC
:1002A00000210722D02300F0A9FD0A2000210F22FF
:1002B0009F2300F0A3FD0B2000210F22D22300F08A
:1002C0009DFD0C20002117226E2300F097FD0021D8
:1002D0000A460D20042300F091FD0E200021072284
:1002E000CF2300F08BFD0F2000210722D42300F044
:1002F00085FD102000210F229F2300F07FFD11209B
:1003000000210F22A42300F079FD122000211722E2
:100310006F2300F073FD132000211722742300F0D7
:100320006DFD142000211F223F2300F067FD0021F6
:100330000A460B46152000F061FD00210A461620F2
:10034000032300F05BFD172000210722D02300F0DB
:1003500055FD182000210722D32300F04FFD19205E
:1003600000210F22A02300F049FD1A2000210F22B6
:10037000A32300F043FD1B2000211722702300F06F
:100380003DFD1C2000211722732300F037FD1D20A6
:1003900000211F223F2300F031FD1E2000210722F3
:1003A000082300F02BFD00210A460B461F2000F019
:1003B00025FD00210A460B46202000F01FFD0021EC
:1003C0000A462120FD2300F019FD20221346222099
:1003D000012100F013FD232002210122002300F05F
:1003E0000DFD00210A460B46242000F007FD0021E8
:1003F0000A460B46252000F001FD00210A460B4667
:10040000262000F0FBFC00210A460B46272000F0C6
:10041000F5FC00210A460B46282000F0EFFC0021E5
:100420000A460B46292000F0E9FC2A6823689B1A3B
:10043000632BFBD938BD00BF080600202DE9F04F23
:1004400093B001F051F99748012100F0EBFC964C74
:10045000032007210522012300F05AFF80230522F3
:10046000C4F8803001200C21002300F051FF4FF42C
:100470008053A3638D48012100F0D4FC0120014684
:10048000024600F015FB8A4800F064FD894BA3FB8F
:1004900000129209013AB2F1807F80F0CF80864B42
:1004A000864CE02500200721854E5A6084F82350B1
:1004B0009860196033683268814DD21AB2F5FA7FBC
:1004C000F9D301242246022004210023009400F0E5
:1004D000DBFE00F081FF224602200421002300F011
:1004E00017FF002213460220052100F011FF002211
:1004F000134602200C2100F00BFF002213460220BD
:100500000D2100F005FF0022134620460B2100F0CC
:10051000FFFE002213460220062100F0F9FE05210D
:100520000A460023032000F0F3FE5F4B2022DA6727
:100530002B683268624CD21AC72AFAD95A4B8022E9
:10054000DA67032001230621002200F0E1FE236880
:100550003268D21AC72AFBD9FFF75CFE594A112329
:1005600000925948594A4FF4807100F0B3FB0420BF
:10057000574900F03FFF574B20220024DFF86C81E1
:1005800083F80B43DFF860A183F8092383F8012384
:10059000FFF722FEA8F104074F4B40F2C532039744
:1005A000AAF10407A3461A6008F5C67504970AF570
:1005B000C674DFF83CC14FF00109DCF80030DFF809
:1005C00034C103EB090ECCF80090DFF824C10027FA
:1005D000CCF800E0DFF81CE1DFF804C1CEF80070D1
:1005E000DFF800E1CCF80070DFF80CC1384639467E
:1005F0003A464B46CEF80070CCF8007000F0FEFB97
:1006000039463A463B462E2000F0F8FB384639463C
:100610003A464B4600F0F2FB39463A463B462F201D
:1006200000F0ECFBDFF89CE02C4B9EF805101B68FB
:100630002B4805932B4A734609B9FEE7FEE7DFF81E
:1006400088E05F719EF805C093F806E0CDF838C0E9
:100650001D49BEF1000FF0D091F806E093F8079025
:100660009F71CDF83CE0B9F1000FE6D04FEA0C4C99
:10067000C0F800C0D0F800C0DF714CEA0E2EC0F800
:1006800000E0D0F8009091F807E093F80DC049EA37
:100690000E09C0F80090CDF840E0BCF1000F2DD15C
:1006A000FEE700BF0062020000600040003202006E
:1006B00020000400D34D621010E000E000ED00E0E7
:1006C000080600201C0100202C090020000000204A
:1006D000C901000000E100E008000020AC0000209B
:1006E000B4000020B00000200C0600209C07002071
:1006F000C4000020A4000020C002002091F80DE0FA
:10070000987B5F73CDF838E00028C9D0887B93F8D8
:100710000FC0029005989F7300F1060902980F9090
:10072000BCF1000FBCD04FEA0E4EC2F800E0D2F888
:1007300000E0C97B4EEA002EC2F800E0D2F800E0EB
:10074000DFF808C34EEA010EC2F800E058F82B00AB
:100750001268DCF800E01091AD497045C1F80090D6
:10076000DF734FEA8B0100F07D81AA4F3B6898420E
:1007700000F03A81A84F48F8012003973B46002239
:1007800053F8040FAB420244FAD1DFF8A0C2DFF8FD
:10079000C0E28CFB02C3D217C2EB63139F48A04A8E
:1007A000CEF8003007685AF8013010689D4A83423D
:1007B00000F00A81DFF878C2DCF80000834200F024
:1007C000618199484AF8017004900346002253F869
:1007D000040FA3420244FAD1944FDFF878C287FB9A
:1007E0000273D217C2EB6312D8F800008A4BCCF820
:1007F000002053F8042F9042A8BF1046AB42F8D116
:10080000DFF810E2DAF80020874BCEF8000053F84A
:10081000040F8242A8BF02469C42F8D184484FF49C
:100820007A7302607D4A824F1068DFF82CC203FBA6
:1008300000F03A68DCF8007090FBF2F203FB07F37B
:100840006420DFF8D0E100FB02F0DEF80020BBF10D
:10085000640F93FBF2F390FBF3F000F3B1800B1DF8
:1008600074490BF1010B0B44734FDFF8CCC13A68AC
:10087000724F0132CCF8002018604FF00E0E4FF48A
:100880008041012239610792079B952B05D8079B70
:1008900001330793079B952BF9D979610692069B43
:1008A000952B05D8069B01330693069B952BF9D90A
:1008B000BEF1010EE6D1A0F14703302B98BFA0F1A5
:1008C000460E5F485F4903685F4A622BC1F800E04B
:1008D00042F823E072DD0023594F0A223B60574F54
:1008E0004FF48040012138610991099B632B05D8A1
:1008F000099B01330993099B632BF9D9786108910E
:10090000089B632B05D8089B01330893089B632B36
:10091000F9D9013AE7D1DFF8449148484FF0070C84
:100920004FF4804101222EFA0CF303F0010349F841
:10093000043D33B3072701610D920D9BC72B05D8EA
:100940000D9B01330D930D9BC72BF9D941610C927F
:100950000C9BC72B05D80C9B01330C930C9BC72B0E
:10096000F9D9013FE7D11CF1FF3CDCD2DFF8F0C040
:100970000023CCF80030326833689B1A0E2BFBD969
:1009800017E60A2701610B920B9B632B05D80B9B83
:1009900001330B930B9B632BF9D941610A920A9B9C
:1009A000632B05D80A9B01330A930A9B632BF9D961
:1009B000013FE7D11CF1FF3CB5D2D7E701338BE70C
:1009C0001C4B4FF0000B4FE7049B4AF8017003F5F6
:1009D000C87E002253F8040F8242B8BF0246734516
:1009E000F8D10F4B1A60ECE648F80120039BD8F8C9
:1009F000000003F5C87E53F8047FB842A8BF38460C
:100A00007345F8D1DFF80CC0CCF80000B2E600BFA7
:100A1000AC000020C800002098070020B40000208F
:100A20009C0000200C060020080600201F85EB51CA
:100A3000CC00002074040020BC00002000600040B6
:100A4000A8000020A0000020E40200209800002060
:100A5000B8000020C0000020B0000020E402002008
:100A6000A4000020039B48F82B2003F5C87E53F810
:100A7000040F8742B8BF07467345F8D10A4B1046AA
:100A80001F6072E64AF80170049B126803F5C87E85
:100A900053F8040F8242A8BF02467345F8D1DFF82D
:100AA0000CE0CEF800208CE698000020CC0000205E
:100AB0002DE9F04105460E4680B301282CD1824C29
:100AC000DFF80CC233024FF4C0684FF440670020D7
:100AD00043F00F030D21C4F81480C4F800C0E76090
:100AE000E06461606365DAB11523E3602368012D7A
:100AF00043F48033236041F6F9734FF001084FF05F
:100B00000407A36417D01ED3022D1AD1002E56D08D
:100B1000012E3AD0BDE8F081BDE8F0816B4CCFE703
:100B20000523E360012D41F6F9734FF004084FF0FF
:100B30000107A364E7D1002E75D0012E59D0BDE87E
:100B4000F081BDE8F081012E00F0A380C0F0878025
:100B5000022E40F0828030463A460B21002300F0FE
:100B6000D7FB304642460A21002300F0D1FB304635
:100B70003A460821002300F0CBFB30463A460921D3
:100B80000023BDE8F04100F0C3BB30463A460321E4
:100B9000002300F0BDFB304642460421002300F054
:100BA000B7FB30463A460621002300F0B1FB304641
:100BB0003A4605210023BDE8F04100F0A9BB2846D4
:100BC00029463A46334600F0A3FB284642463346C0
:100BD000032100F09DFB28463A463346052100F0EC
:100BE00097FB28463A4633460421BDE8F04100F021
:100BF0008FBB00210B463A46032000F089FB3146AB
:100C000042460320002300F083FB032001463A46BE
:100C1000002300F07DFB3A46032002210023BDE8BB
:100C2000F04100F075BB31463A463346022000F0F1
:100C30006FFB424629463346022000F069FB2846F6
:100C40003A463346082100F063FB28463A463346CD
:100C50000721BDE8F04100F05BBBBDE8F0813A46FA
:100C600004200A21002300F053FB424604200B21FC
:100C7000002300F04DFB3A4604200D21002300F034
:100C800047FB3A4604200C210023BDE8F04100F068
:100C90003FBB3A4604200721002300F039FB4246BF
:100CA00004200621002300F033FB042001463A46CD
:100CB000002300F02DFB3A46042005210023BDE867
:100CC000F04100F025BB00BF00C4004000C0004060
:100CD00001040010F0B40D4B0D4C0E4F0E4DDFF81B
:100CE00040C04FF40062002639602E600499CCF8B1
:100CF0000000DA60C4F880212260D86C074A40F016
:100D00000400D864F0BC1160704700BF00C400400C
:100D100000E100E0D80A0020C0020020E80A00201C
:100D2000D40A00201B4B30B41A6801321A6072B624
:100D3000194B1A491A68541C1CBF01321A60086901
:100D4000000606D5164C1748CD69216804688C4208
:100D500009DB1549086801300860013A1A6002B9D8
:100D600062B630BC7047114902680C681049A5543E
:100D70000268096801320260026801200A440A49D7
:100D800002F8010C08681A6801300860002AE4D1F2
:100D900030BC7047D4000020D800002000C40040C0
:100DA000D80A0020C0020020D0000020D40A002071
:100DB000E80A00200D4B30B41A6952060ED50C48D3
:100DC000016889B10B4A0C4C1568495D596311687B
:100DD00023680131116012689A4201D030BC70471B
:100DE0000023036030BC70475963F7E700C400403C
:100DF000EC0A0020F00A0020E00A002070B4074E40
:100E00003469064D6406FBD56863696328466A63E6
:100E10006B6303699B06FCD570BC704700C400403F
:100E2000FEE700BFC0F30323013B30B4052B25D8F8
:100E3000DFE803F01B171F21031D134A1024134D75
:100E4000C0F304306B6DDB0704D530BC0244920064
:100E5000116070472B6D1C42F7D02B6D1C42F9D1ED
:100E6000F3E70B4AC0F30430EFE70A4AFAE70A4A0D
:100E7000F8E70A4AF6E70A4A0124E0E7094840F29F
:100E80003E4130BCFFF7CCBF0003E41000800C40B3
:100E90002002E4104000E410C003E4100002E4105B
:100EA000C002E4105418000000F00F00013808B52B
:100EB00003283ED8DFE800F02B1C0D02234B1B68F3
:100EC00013F0805333D0B3F1805F0CBF08200120B2
:100ED00008BD1E4A936A03F00C03082B32D00C2B7A
:100EE00032D0042B2CD0936ADB020ED5092008BD2A
:100EF000164B986A00F00300022819D0032823D06B
:100F000001281DD09B6ADA03F0D4012008BD0F4BE5
:100F1000DB6A03F47053B3F5805F11D0B3F5005F63
:100F200010D0B3F5006F0CBF0420052008BD0720CA
:100F300008BD074840F28751FFF772FF002008BD47
:100F4000032008BD022008BD062008BD00800C401B
:100F50005418000000F47810B0F5402F08B500F0E8
:100F6000078115D9B0F5901F00F0DA8040F28B8030
:100F7000B0F5C01F31D0B0F5D01F6DD0B0F5A01FB7
:100F800051D0B8484FF49D61FFF74AFF002008BDDB
:100F9000B0F5802F00F0E88040F29480B0F5002F8B
:100FA00029D0B0F5202F00F0CA80B0F5C02FE8D1CD
:100FB000AD4B9B6A03F00303022B00F01981032B56
:100FC00000F0FA80012B00F01781A74B9B6A180CE8
:100FD000DDD0BDE8084000F07DBBA448FFF764FF0A
:100FE000072839D008287AD09E484FF4CA71FFF7F5
:100FF00017FF002008BD9C4A936A03F00303022BED
:1010000000F01381032B00F0E380012B00F0F88047
:10101000936A180C01D000F05DFB934B9B6EC3F3F9
:101020000313D84008BD904B9B6AC3F38103022B86
:1010300000F0E980032B00F0C780012B00F0F28064
:10104000894B9B6A180D01D000F044FB864B1B6F47
:1010500003F00303D84008BD834B5B6903F4E063EE
:10106000B3F5007F00F0F28040F29E80B3F5C06FD0
:1010700000F0F080B3F5E06F00F0EA80B3F5407F58
:1010800084D17B4808BDB0F5602F2CD0B0F5801F0F
:101090007FF477AF744A936A03F00303022B00F0E6
:1010A000BB80032B00F09880012B00F0C780936A6F
:1010B0001B0C40F0D18000206B4B9B6E03F00303B0
:1010C000D84008BD58B1B0F5003F7FF45AAF00F0EA
:1010D0009BFA654B9B6803F00F03D84008BDBDE841
:1010E000084000F091BA604A936A03F00303022BB0
:1010F00000F09E80032B73D0012B00F08780936A51
:10110000180C01D000F0E6FA574B9A6EDB6FC2F371
:101110000132D04003F007030133B0FBF3F008BD08
:10112000514A936AC3F38103022B61D0032B43D04E
:10113000012B61D0936A180D3FF429AF49E74A4A61
:10114000936A03F00303022B75D0032B4CD0012BC1
:1011500077D0936A1B0C40F082800020424B9B6E3C
:10116000C3F30323D84008BDBDE8084000F0E2B94E
:101170003D4A936A03F00303022B50D0032B1FD088
:10118000012B46D0936A180C01D000F0A3FA364B1D
:1011900010229B6EB2FA82F2D2B2C2F11F02C3F3E6
:1011A00001331344D84008BD002B4DD0B3F5807FE8
:1011B0007FF4ECAE2F4808BD00F0BCF9400808BD34
:1011C00000F0B8F94008E2E700F0B4F940083DE764
:1011D00000F0B0F9400820E700F0ACF940086BE7F8
:1011E00000F0A8F940088FE700F0A4F94008B5E73F
:1011F000BDE8084000F072BABDE8084000F066BAE9
:1012000000F064FA09E700F069FA1FE700F05EFAFF
:101210007AE700F05BFABAE700F060FA4CE700F01A
:101220005DFAB4E700F052FA10E700F057FAF4E67E
:1012300000F054FA68E700F051FA8FE700F046FA40
:101240003AE700F043FA89E70B4808BD0B4808BDB0
:101250000B4808BD0B4808BD00F03CFA2CE700F035
:1012600039FA7BE75418000000800C400400180095
:1012700040420F00C0D8A700809FD500C0CF6A00B1
:10128000406F4001003FAB012DE9F04105280546C4
:101290000C46164698469DF8187020D80F291ED87F
:1012A000072C22D9A4F108039B000F229A409D40ED
:1012B000144BD3F8041121EA02021543C3F8045178
:1012C0000122A24010490F4B214489000E60C1F851
:1012D0008080C3F81C21C1F80071BDE8F0810B4883
:1012E0009721FFF79DFD072CDCD8A3000F229A4021
:1012F0009D40044BD3F8001121EA02021543C3F8C4
:101300000051DDE70060004040088310A418000091
:101310000528F8B504460D4616461F4622D80F2963
:1013200020D82EBBE200072D2FD8AB004FF00F0CBA
:101330000CFA03FC06FA03F31119890001F180414C
:1013400001F5C041486820EA0C0003434B6046B9F0
:10135000012303FA05F522449FBB1D4B9200134461
:101360005D60F8BD1B48CC21FFF75AFD002ED9D097
:101370000121A940E200F7B113199B0003F180435A
:1013800003F5C043072D1961CFD905F18043083B10
:101390009B004FF00F0C0CFA03FC06FA03F3111933
:1013A000890001F1804101F5C041886820EA0C0004
:1013B00003438B60CBE71019054B80000344596051
:1013C000B1E7920002F1804202F5C0421561F8BD1A
:1013D00010600040A4180000054B4FF40071022279
:1013E000C3F880111960C3F880211A60704700BFEC
:1013F00000E100E010B472B60A4A0B4C1368B3F176
:10140000FF3F06D044F8201003B962B65DF8044BE4
:1014100070476FF0010344F8201013605DF8044B2F
:10142000704700BFD8000020DC0000200F4B70B5D3
:10143000D3F81011D3F8142145F255540A40144042
:10144000C3F81C418CB10A4E012594FAA4F3B3FAF7
:1014500083F3DBB205FA03F2184656F8233024EA88
:10146000020403B19847002CEFD170BD006000402A
:10147000DC0000200F4B70B5D3F81011D3F8142105
:101480004AF6AA240A401440C3F81C418CB10A4E03
:10149000012594FAA4F3B3FA83F3DBB205FA03F25D
:1014A000184656F8233024EA020403B19847002C6A
:1014B000EFD170BD00600040DC000020074880478D
:1014C0000749084A084B9B1A40F30580043BC8585B
:1014D000D0503FF7FBAF054800470000C916000099
:1014E00008190000000000207C00002055010000C9
:1014F000FEE7FEE7FEE7FEE7FEE7FEE7FEE7FEE7C4
:10150000FEE7FEE7FEE7FEE7FEE7FEE7FEE7FEE7B3
:10151000FEE7FEE7FEE7FEE7FEE7FEE7FEE7FEE7A3
:10152000FEE7FEE7FEE7FEE7FEE7FEE7FEE7FEE793
:10153000FEE700BF274AD36A03F47053B3F5805F18
:1015400025D0B3F5005F1FD0B3F5006F11D0D3687D
:1015500003F4E063B3F5007F3AD01BD9B3F5806F95
:1015600034D0B3F5A06F2FD0B3F5407F20D0002149
:1015700001E0194B1968174A184B506800F00F002A
:1015800021FA00F018607047154B1968F3E74FF423
:101590000041F0E773B1B3F5807FE8D1114B124AF7
:1015A000D96C124BB1F1985F34BF11461946E2E78E
:1015B0000F49E0E70B4B0F4AD96C0F4BB1F1985F25
:1015C00034BF11461946D6E70C49D4E70C49D2E797
:1015D0000C49D0E700800C4010000020F40A0020E5
:1015E0000C000020B081E00FC0CF6A0040B564005D
:1015F000809FD50040420F00804F1200003FAB019A
:10160000406F4001C0D8A700234AD36A03F4705347
:10161000B3F5805F1DD0B3F5005F17D0B3F5006F51
:1016200011D0D36803F4E063B3F5007F32D013D94F
:10163000B3F5806F2CD0B3F5A06F27D0B3F5407F02
:1016400018D000207047154B18687047144B186865
:1016500070474FF40040704773B1B3F5807FF0D10D
:10166000104B114AD86C114BB0F1985F34BF104643
:10167000184670470E4870470A4B0E4AD86C0E4BFE
:10168000B0F1985F34BF1046184670470B4870475A
:101690000B4870470B48704700800C40100000203A
:1016A0000C000020B081E00FC0CF6A0040B564009C
:1016B000809FD50040420F00804F1200003FAB01D9
:1016C000406F4001C0D8A700704700BF4FF40040F2
:1016D000704700BF4FF47A70704700BF014B186825
:1016E000704700BF0C0000204FF07E6318682DE9A2
:1016F000F00310B9BDE8F00370472649264B4A6C49
:10170000102042F040024A64D3F820410A4644F0D7
:101710000404C3F82041D3F8204124F4407444F475
:101720008074C3F820411C6D24F070441C651C6D4E
:1017300044F080441C650862D36A9906FCD5174BB7
:10174000DA68D20121D4D868154ADFF86080DFF862
:101750006090144D144C40F0807002274FF4807656
:101760004FF060414FF00F0CD860C8F80090012096
:10177000C2F810C0C2F8F070C2F80463C1F8B05FDC
:10178000C1F8804EBDE8F00370470120BDE8F003CA
:10179000704700BF00800C4000600040F0ED00E0AA
:1017A000000004E055CEACC509000100001000E0C7
:1017B000FF13014008B5074B044613B10021AFF3F6
:1017C0000080054B1868836A03B19847204600F0F3
:1017D00033F800BF00000000F818000070B50E4B91
:1017E0000E4D0024ED1AAD101E46AC4204D056F842
:1017F000242090470134F8E700F020F8084D094B09
:101800000024ED1AAD101E46AC4204D056F8242038
:1018100090470134F8E770BD740000207400002088
:10182000780000207400002002440346934202D056
:1018300003F8011BFAE77047FEE700BFF8B500BFE9
:10184000F8BC08BC9E467047F8B500BFF8BC08BCA1
:101850009E467047433A2F53696C69636F6E4C61C3
:1018600062732F53696D706C696369747953747511
:1018700064696F2F76322F646576656C6F70657260
:101880002F73646B732F65666D33322F76322F653D
:101890006D6C69622F7372632F656D5F636D752E5A
:1018A00063000000433A2F53696C69636F6E4C61AB
:1018B00062732F53696D706C6963697479537475C1
:1018C00064696F2F76322F646576656C6F70657210
:1018D0002F73646B732F65666D33322F76322F65ED
:1018E0006D6C69622F7372632F656D5F6770696FCE
:1018F0002E630000430000001400002000000000E0
:0819000054E8FF7F0100000024
:10190800544553540000000001000000008000000E
:101918000048E8010000000000000000000000008E
:1019280000000000000000000000000000000000AF
:1019380000000000F4180000000000000000000093
:10194800000000000000000000000000000000008F
:10195800000000000000000000000000000000007F
:10196800000000000000000000000000000000006F
:0C1978000000000025010000010100003B
:04000003000014BD28
:00000001FF
